:020000040800F2
:10000000E0070020A1010008272800083B2600087F
:10001000252800080D090008712E000800000000C6
:100020000000000000000000000000002B28000875
:10003000A10B000800000000292800082D28000856
:10004000BB010008BB010008BB010008BB010008A0
:10005000BB010008BB010008BB010008BB01000890
:10006000BB010008BB010008BB010008BB01000880
:10007000BB010008BB010008BB010008BB01000870
:10008000BB010008BB010008D9070008BB0100083C
:10009000BB010008BB010008BB010008BB01000850
:1000A000BB010008BB010008BB010008BB01000840
:1000B000D5280008BB010008BB010008BB010008EF
:1000C000BB010008BB010008BB010008BB01000820
:1000D000BB010008652E0008BB010008BB01000839
:1000E000BB010008BB010008BB010008BB01000800
:1000F000BB010008BB010008BB010008BB010008F0
:10010000BB010008BB010008BB010008BB010008DF
:10011000BB010008BB010008BB010008BB010008CF
:10012000E50A0008BB010008F10A0008BB0100084D
:10013000BB010008BB010008BB010008BB010008AF
:10014000BB010008BB010008BB010008BB0100089F
:10015000BB010008BB010008BB010008BB0100088F
:10016000BB010008BB010008BB010008BB0100087F
:10017000BB010008BB010008BB0100080000000033
:10018000BB010008BB010008DFF810D000F05CFAEA
:1001900000480047C3370008AFF30080E0070020A5
:1001A0000648804706480047FEE7FEE7FEE7FEE711
:1001B000FEE7FEE7FEE7FEE7FEE7FEE7C5280008EC
:1001C000890100082DE9F05F0546002092469B4614
:1001D00088460646814640241BE02846414647465D
:1001E000224600F069F853465A46C01A914110D38E
:1001F00011461846224600F050F82D1A67EB010808
:100200004F4622460120002100F047F817EB000975
:100210004E41201EA4F10104DFDC484631462A4647
:100220004346BDE8F09F40EA01039B0703D009E085
:1002300008C9121F08C0042AFAD203E011F8013BD2
:1002400000F8013B521EF9D27047D2B201E000F82B
:10025000012B491EFBD270470022F6E710B513466A
:100260000A4604461946FFF7F0FF204610BD30B598
:100270000B46014600202022012409E021FA02F564
:100280009D4205D303FA02F5491B04FA02F52844FE
:10029000151EA2F10102F1DC30BD202A04DB203A58
:1002A00000FA02F1002070479140C2F1200320FAC9
:1002B00003F3194390407047202A04DB203A21FAC7
:1002C00002F00021704721FA02F3D040C2F120026F
:1002D00091400843194670472DE9FE4F804681EA58
:1002E0000300C00F0C46009021F0004123F00045B0
:1002F000B8EB0200A94105D24046214690461C4673
:100300000B46024623F00040104347D0270DC7F3A9
:100310000A00C3F30A510290401A019040286BDA98
:10032000C3F3130040F4801B0098924620B10023D1
:10033000D2EB030A63EB0B0B01985946C0F1400264
:100340005046FFF7AAFF06460D4650465946019A09
:1003500000F08CF910EB08006141002487EA11528B
:1003600084EAE7731A4340D0009A62B3019A012AE3
:100370004FEA075215DC001B61EB02014FF000420F
:1003800002EA0752CDE90042001C41F580113246D5
:100390002B4600F08CF903B0BDE8F08F40462146B3
:1003A000F9E7001B61EB0201001C41F58013001806
:1003B0005B412018A2F5001747EB030140EAD57016
:1003C000B6196D4111E06D084FEA360645EAC07571
:1003D0004FEA0752001B61EB0201001C41F580113E
:1003E00049084FEA30000019514132462B4603B00C
:1003F000BDE8F04F00F04CB9009801224000002306
:10040000D0EB020263EBE073009821464FEAE07400
:10041000B8EB000061EB0401E9E783F000435BE720
:1004200081F0004158E72DE9FE4F81EA030404F012
:10043000004421F0004100944FF0000B23F00043F2
:1004400050EA01045ED052EA03045BD0C3F30A54BD
:10045000C1F30A552C44A4F2F3340194A0FB0254D6
:10046000C1F3130141F48011C3F3130343F4801368
:1004700001FB024400FB034E840A970A44EA8154BC
:1004800047EA8357A4FB076802958D0A05FB078599
:100490004FEA932C04FB0C542705029D4FEA0658A3
:1004A00047EA1637B5EB08056EEB070C870E920E80
:1004B00047EA811742EA8312A7FB0201B6EB0B0160
:1004C00064EB00042B0D43EA0C335E1844EB1C5024
:1004D000DA465146E7FB0201C5F313044FEA0B333A
:1004E00043EA14534FEA0432019C43EA0603A4F1A1
:1004F0000C040294009CCDE900B400F0D8F803B0DD
:10050000BDE8F08F00200146F9E72DE9F04D81EAC2
:10051000030404F0004B21F0004514464FF0000A9C
:1005200023F0004150EA050220D054EA01021DD018
:10053000C5F30A570246C5F31303C1F31300C1F311
:100540000A5640F4801543F48013A7EB0608101BED
:10055000D64608F2FD3873EB050002D308F1010816
:1005600001E092185B41B8F1000F03DA0020014668
:10057000BDE8F08D00204FF48011064684460EE061
:10058000171B73EB050705D3121B63EB050306432B
:100590004CEA010C49084FEA300092185B4150EADE
:1005A0000107EDD152EA030012D082EA040083EA87
:1005B0000501084305D0101BAB4106D201220023E0
:1005C00006E000224FF0004302E06FF001025310FA
:1005D0001AEB06004CEB085110EB0A0041EB0B0143
:1005E000BDE8F04D00F054B8C1F30A52C1F3130155
:1005F00040F2FF3341F480119A4202DA00200146B2
:10060000704740F233439A42A2F2334202DC524234
:10061000FFF752BEFFF741BE30B5041E71F1000472
:1006200004DB4FF00044404264EB0101141E73F1FF
:10063000000405DB1C464FF00043524263EB040309
:10064000994208BF904230BD064C074D06E0E06875
:1006500040F0010394E8070098471034AC42F6D309
:10066000FFF796FD703A0008903A0008202A06DB52
:10067000CB17203A41FA02F043EAE07306E041FA70
:1006800002F3D040C2F1200291400843194670475E
:1006900010B5141E73F1000408DA401C41F100018A
:1006A00092185B411A4301D120F0010010BD2DE9E1
:1006B000F04D92469B4611B1B1FA81F202E0B0FAD8
:1006C00080F220329046FFF7E8FD04460F4640EAEC
:1006D0000A0041EA0B0153465A46084313D011461B
:1006E00053EA010019D0C8F140025046FFF7E4FD7B
:1006F00005460E46504659464246FFF7CEFD084392
:1007000005D0012004E020463946BDE8F08D0020E8
:10071000054346EAE0762C4337430A986305E40A2A
:10072000A0EB08000022FD0A44EA47540A3002D533
:1007300000200146E9E7010510196941DDE9084596
:1007400000196941BDE8F04DA2E710B50146806B84
:10075000026C12F0500F05D0026CD20626D500F0C4
:10076000E5FA10BD016C41F40071016401688A680A
:1007700012F0405F17D1027EAAB9CA6A12F4700F54
:1007800002D08A6852050ED44A6822F020024A60DC
:10079000016C21F480710164016CC90403D4016C03
:1007A00041F00101016400F0BFFA10BD806BC26C22
:1007B000BDE810400846104710B5806B4021016429
:1007C000416C41F00401416400F0B0FA10BD10B575
:1007D000806B00F0AAFA10BD014800F0A8BA000032
:1007E0003C000020464910B54A6822F440324A6075
:1007F0004A6843681A434A6001684A6822F4807272
:100800004A6001684A68036942EA03224A60016853
:100810004A6822F040724A6001684A6883681A4355
:100820004A6001688A6822F400628A6001688A6806
:10083000C3681A438A60816A6FF07062D1420168AE
:100840008A6822F070628A6001688A680CD0836AC4
:100850001A438A6001688A6822F040528A600168FF
:100860008A68C36A1A4301E022F040528A60016834
:100870008A6822F002028A6001688A68037E42EA7E
:1008800043028A6090F82010002901684A680FD05E
:1008900042F400624A6001684A6822F460424A6099
:1008A00001684A68174C436A04EB43331A4301E07A
:1008B00022F400624A600168CA6A22F47002CA62C5
:1008C0000168CA6A838B104C04EB03531A43CA6253
:1008D00001688A6822F400728A6001688A6890F868
:1008E000303042EA43228A6001688A6822F48062DA
:1008F0008A6001688A68406942EA8020886010BD89
:100900000023014000E0FFFF0000F0FFFEE70000D1
:1009100030B585B0002414216846FFF79DFC4FF4E4
:1009200080700090002001900120029069461348D9
:1009300000F0A0FD124D04E0641CE4B2012000F0C0
:1009400031F9D5F8200210B1642CF5D30DE0642CF8
:100950000BD2002404E0641CE4B2012000F022F970
:10096000D5F8200220B1642C05D3012005B030BD9C
:10097000642CF0D3F9E70020F8E700000000024003
:100980000000404230B587B014216846FFF764FC90
:1009900010480021026842F00102026000684FF432
:1009A000807400F00100009405900120CDE9010160
:1009B0000220094D03906946284600F05BFD0122A4
:1009C0002146284600F04EFE00F066F8FFF7A0FF33
:1009D00007B030BD303802400000024070B500243E
:1009E000104D04E0641CE4B2012000F0DBF8D5F8FF
:1009F000200208B1642CF5D3002404E0641CE4B2A6
:100A0000012000F0CFF8D5F8200208B9642CF5D306
:100A1000282000F0C7F8D5F82002002800D00120D7
:100A200070BD00000000404270B500200446400642
:100A3000050EFFF7D3FF641C2843E4B2082CF6D35D
:100A400070BD00002DE9FC410D46064600F024F87B
:100A5000FFF75EFFE8B900244FEA0D07FFF7E4FF58
:100A60003855641CE4B2052CF8D39DF800109DF8AD
:100A700001009DF803300A189DF8020003441A444F
:100A80009DF804309A4204D1297030700020BDE8EE
:100A9000FC810120FBE7000030B585B014216846D9
:100AA000FFF7DAFB4FF480700125CDE90005022045
:100AB00003906946094800F0DDFC094C0020C4F8A9
:100AC000A002142004F5287400F0C2FC256005B0D3
:100AD0001E20BDE8304000F065B800000000024074
:100AE00000004042014800F041BB000084000020AB
:100AF000014800F03BBB000074010020016818238E
:100B0000CAB2103AB2FBF3F2054B6FF30901032AA4
:100B10009B5CC36500D9091D8165084670470000CC
:100B2000503A000810B5014600208B698A6A4FF0E0
:100B3000C07453B1B3F5005F15D072B1012A0CD067
:100B4000022A0AD0032A09D104E01AB1012A06D0E8
:100B5000022A03D1C96AC90100D5012010BDC96AA2
:100B6000A142FAD010BD002AF7D0012AF2D0022A01
:100B7000F3D0032AF3D010BD30B50468256825F4FE
:100B800080252560046863608368402B036803D078
:100B900099600068C26030BD9A600068C16030BD75
:100BA0007047000070B54FF6FA75094E281A84B2E6
:100BB00030684462304601F043F9306801E0416A30
:100BC0008CB2AC42FBD3BDE87040014801F074B96F
:100BD000E400002072B6FEE77047000078B50024FC
:100BE000009490F83C20012A19D0012280F83C2082
:100BF0000A6807230568092A13D9EE680A3A02EB46
:100C0000420293409E43EE600B788A680A3B03EBF6
:100C100043039A400368DD682A43DA6010E002204B
:100C200078BD2E6902EB420293409E432E610B7801
:100C30008A6803EB43039A4003681D692A431A61DB
:100C40004A681F23072A13D205686E6B521E02EBF7
:100C5000820293409E436E630B790A885B1E92B2B8
:100C600003EB83039A4003685D6B2A435A6327E0D2
:100C700005680D2A12D22E6BD21F02EB820293401E
:100C80009E432E630B790A88DB1F92B203EB83032A
:100C90009A4003681D6B2A431A6311E0EE6A0D3A0D
:100CA00002EB820293409E43EE620B790A880D3B71
:100CB00092B203EB83039A400368DD6A2A43DA6247
:100CC000164B0568144A9D4206D10D68122D03D1BA
:100CD000556845F48005556005689D4218D10B683C
:100CE000102B01D0112B13D1536843F40003536030
:100CF000096810290CD10A490A4A0968B1FBF2F1C6
:100D000001EB8101490000E0491E00910029FBD15F
:100D100080F83C40002078BD0023014000200140C5
:100D20000C00002040420F0070477047704770B5BC
:100D3000044600680668456816F0020F05F02001B9
:100D40002AD049B3216CC90603D4216C41F4007147
:100D50002164816811F0405F17D1217EA9B9C16A71
:100D600011F4700F02D0816849050ED4416821F05A
:100D700020014160206C20F480702064206CC0044D
:100D800003D4206C40F0010020642046FFF7CCFF24
:100D900021686FF01200086016F0040F05F0800162
:100DA00032D089B3206CC00603D4206C40F40050CC
:100DB00020642068816811F4401F1ED1816B11F4FA
:100DC000401F02D08168490517D44168490514D4F1
:100DD000816811F0405F10D1217E71B9416821F026
:100DE00080014160206C20F480502064206CC0059C
:100DF00003D4206C40F0010020642046FFF7ECFE95
:100E000021686FF00C00086016F0010F05F040013A
:100E10000FD071B120680068C0070AD0206C40F480
:100E200080302064204600F043F821686FF0010014
:100E3000086016F0200F05F080610ED000290CD05C
:100E4000606C40F00200606420686FF0200505606F
:100E50002046FFF76BFF2068056070BD70B5040089
:100E60004FF0000503D0206C002610B107E00120F0
:100E700070BD204600F01EF8666484F83C60206C6B
:100E8000C00610D4206C20F4885040F0020020648A
:100E90002046FFF7A7FC6664206C20F0020040F0BB
:100EA0000100206400E0012584F83C60284670BD04
:100EB0007047000070B586B0064614216846FFF7FB
:100EC000CBF92149306888423CD12048002501688F
:100ED00041F480710160006800F4807005901B4847
:100EE0001438016841F0010101600068694600F0B2
:100EF00001000590022000900320CDE9010514486F
:100F000000F0B8FA144C1348C4E900050015A560B8
:100F1000C4E90350800060618000A0618011C4E9D1
:100F200007052046656200F0F1F908B1FFF752FEAF
:100F3000B463002211461220A66300F007FC1220C1
:100F400000F0F6FB06B070BD0020014044380240BE
:100F5000000002401064024084000020F8B50E46F4
:100F600000210446009190F83C0013460A460128EF
:100F700007D0012084F83C0020688568ED0702D086
:100F800011E00220F8BD856845F001058560404804
:100F9000404D0068B0FBF5F000EB400000E0401E63
:100FA00000900028FBD120688568ED0503D5856891
:100FB00025F48075856020688568ED075DD0226C1A
:100FC00040F20165AA4342F4807222644068400501
:100FD00005D5206C20F4005040F480502064206C33
:100FE000C00404D5606C20F00600606400E0616419
:100FF00084F83C10A16B2948274DC863A16B284891
:101000000864A16B2748C86421686FF0220008605B
:101010002068416841F0806141602068816841F446
:1010200080718160216832464C31A06B00F0D8F9A4
:10103000024668681C49C006206806D0884224D150
:10104000816811F0405F13D01FE08842F8D0174B41
:10105000984203D1D1F80433DB06F1D0144B984207
:1010600013D1D1F8041301F01F011029E8D30CE0CB
:10107000816841F08041816007E0206C40F0100001
:101080002064606C40F0010060641046F8BD000010
:101090000C00002040420F00002301404B070008D5
:1010A000CF070008B90700080020014000210140D7
:1010B000002201402DE9F0410446876D00F0D8FA86
:1010C000064694F835000025022806D08020606589
:1010D00084F834500120BDE8F0812068016821F0D7
:1010E000160101602068416921F080014161206C96
:1010F00008B9A06C20B12068016821F008010160E6
:101100002068016821F0010101600CE000F0B0FAF4
:10111000801B052807D920206065032084F835004E
:1011200084F83450D7E720680068C007EED194F8FF
:101130005C103F208840B860012084F8350084F8B6
:1011400034500020C7E790F83510022903D08021E1
:10115000416501207047052180F83510006801685D
:1011600021F0010101600020704700002DE9F843E3
:1011700004464FF00009CDF8009063484FF4165133
:10118000A56D0068B0FBF1F72E6894F85C1008209C
:1011900000FA01F131420FD021680A6852070BD5DD
:1011A0000A6822F004020A6094F85C108840A86083
:1011B000606D40F00100606594F85C104FF001082C
:1011C00008FA01F0304208D021684969090604D5BF
:1011D000A860606D40F00200606594F85C10042027
:1011E0008840304208D021680968890704D5A86082
:1011F000606D40F00400606594F85C101020884039
:10120000304218D021680968090714D5A860206801
:101210000168490304D50068000308D5A16C07E004
:101220000168C90503D4016821F008010160216C3F
:1012300009B12046884794F85C102020884030424D
:1012400031D021680968C9062DD5A86094F8350009
:1012500005282068016806D0490347D500680003C7
:101260001DD4616C1CE021F0160101602068416909
:1012700021F080014161206C08B9A06C20B1206888
:10128000016821F00801016094F85C103F2088405B
:10129000A86084F8358084F83490216D1FE0E16BFC
:1012A00009B120468847606D00282BD0606DC007CB
:1012B00014D0052084F835002068016821F0010170
:1012C00001600098401C0090B84203D82068006874
:1012D000C007F6D184F8358084F83490E16C002999
:1012E00010D001B02046BDE8F04308470168C905A9
:1012F000D5D4016821F01001016084F8358084F8AC
:101300003490CCE7BDE8F8830C0000202DE9F041D3
:10131000044600F0ADF906465CB1022084F83500C1
:10132000002584F834502068016821F00101016033
:101330000DE00120BDE8F08100F09AF9801B05283E
:1013400005D920206065032084F83500F2E7206885
:101350000068C007F0D12268116820480140D4E934
:1013600001031843D4E90336334318436369184330
:10137000A3691843E3691843236A18430843616A61
:10138000042903D1D4E90B131943084310602068E2
:101390004069666A20F0070130460E4301270428A1
:1013A0000CD1A06A0643E06A40B12046FFF7BAFBC1
:1013B00020B14020606584F83570BAE72068466146
:1013C0002046FFF79BFB94F85C203F219140816011
:1013D000656584F835700020ACE700003F8010F0B0
:1013E0002DE9F0410446866D90F83400002501286F
:1013F0000DD0012084F8340094F835700020012FBE
:1014000007D084F8340002252846BDE8F081022088
:10141000FBE7022784F8357060652046FFF7ACFBD8
:1014200094F85C103F208840B0602068016841F06B
:1014300016010160206C20B12068016841F00801AC
:1014400001602068016841F001010160DCE70000F3
:1014500070B5044600F00CF90546601C02D0044843
:101460000078044400F004F9401BA042FAD370BD98
:10147000000000202DE9F84FDFF8BCA10022012573
:1014800003264FF00F090AF1040BAAF1040E00BF66
:101490000B6805FA02F42340A34270D10F7907F0DC
:1014A0000307012F01D0022F16D187684FEA4208A7
:1014B00006FA08FC27EA0C07D1F80CC00CFA08FC65
:1014C0004CEA070CC0F808C04768A7430C79C4F37E
:1014D000001494403C4344600C79E443A4070AD0D0
:1014E000C4684FEA420C06FA0CF7BC438F6807FA4F
:1014F0000CF72743C7600C7904F00304022C12D1C7
:10150000D40800EB840CDCF820405707FF0E09FAE2
:1015100007F824EA0804D1F8108008FA07F848EA26
:101520000408CCF8208004684FEA420C06FA0CF755
:10153000BC430F7907F0030707FA0CF7274307604E
:101540004C6814F4403F70D03C4C276847F4804707
:101550002760246822F0030704F480440094384C88
:1015600007EB040CDCF8084897074FEA177809FAEC
:1015700008F7BC43334FB84202D1002724E054E0BF
:10158000314FB84201D101271EE0304FB84201D19E
:10159000022719E02E4FB84201D1032714E02D4F46
:1015A000B84201D104270FE02B4FB84201D10527E3
:1015B0000AE02A4FB84201D1062705E0284FB84279
:1015C00001D1072700E0082707FA08F72743CCF8DE
:1015D0000878DAF800405746D1F804C09C435FEA27
:1015E000CC2C00D51C433C60DBF800405F46D1F8B2
:1015F00004C09C435FEA8C2C00D51C433C60DEF8A1
:1016000000407746D1F804C09C435FEA8C3C00D58B
:101610001C433C60084F083F3C68D1F804C09C4321
:101620005FEACC3C00D51C433C60521C102AFFF4FE
:101630002FAFBDE8F88F0000083C0140443802405D
:101640000030014000000240000402400008024057
:10165000000C02400010024000140240001802403A
:10166000001C02400AB1816170470904FBE70000D9
:10167000014880687047000000000020024881682F
:101680000278114481607047000000200B4810B5BB
:10169000016841F400710160016841F480610160FA
:1016A000016841F480710160032000F06FF80F20A1
:1016B00000F006F800F024F8002010BD003C0240C5
:1016C00070B50D4D04464FF47A712878B1FBF0F0F7
:1016D0000A490968B1FBF0F000F00AFB48B9102C88
:1016E00007D200222146501E00F030F800206C6026
:1016F00070BD012070BD0000000000200C00002023
:101700000A4808B5016841F480410160006800F4AE
:10171000804000900548001F016841F08051016041
:10172000006800F08050009008BD0000443802407E
:10173000002809DB00F01F020121914040098000D0
:1017400000F1E020C0F8001170470000F0B40E4B2B
:101750001B680C46C3F30223C3F10705042D00D90F
:101760000425191D072901D2002300E0DB1E0126F4
:1017700006FA05F1491E214099409E40761E16400A
:101780003143F0BC01F090BB0CED00E0064900F0E5
:10179000070208684FF6FF03184040EA0220034A98
:1017A00010430860704700000CED00E00000FA05EF
:1017B0002DE9F0470E46050065D0DFF81481D8F812
:1017C0000000F7B200F00700B04207D288F80070BE
:1017D000D8F8000000F00700B04254D128683D4C12
:1017E000810712D5400703D5206840F4E0502060FF
:1017F0002878000703D5206840F460402060206806
:10180000A96820F0F000084320602878C0072DD098
:10181000304968680839012812D0022813D00328FB
:1018200011D00968890700292DDA216821F0030108
:1018300001432160FFF71CFF814641F2883A0EE028
:1018400009688903EFE709688901ECE7FFF710FFF2
:10185000A0EB0901514502D90320BDE8F0872068BB
:10186000696800F00C00B0EB810FEFD1D8F80010E0
:10187000404601F00701B14207D90770006800F047
:101880000700B04201D00120E7E72878400705D5DE
:101890002068E96820F4E0500843206028780007B9
:1018A00006D52068296920F4604040EAC100206024
:1018B00000F038F82168084AC1F30311515CC840B0
:1018C0000649086006480068FFF7FAFE0020C4E7F2
:1018D000003C024008380240583A00080C00002042
:1018E000040000200448054900680968044AC1F35F
:1018F0008221515CC84070470C000020083802402B
:10190000683A00080448054900680968044AC1F3B8
:101910004231515CC84070470C000020083802403A
:10192000683A0008154810B5006810F00C02144819
:1019300013D04110042A0FD0082A0ED10F4C241FB7
:101940002268236802F03F025B0207D52068C0F3DB
:101950008810A0FB010106E0084610BD2168C1F314
:101960008811A1FB00010023FEF72CFC2168C1F3C4
:101970000141491C4900B0FBF1F010BD083802409C
:101980000024F4002DE9F84F04006ED02078DFF831
:101990004C93C007A9F104054AD009F1040001687D
:1019A000C1F38101012908D00068C0F38100022839
:1019B0000AD1D9F80000400206D52868800337D53F
:1019C00060680028E1D033E06068B0F5803F10D057
:1019D000B0F5A02F286810D020F480302860286847
:1019E00020F4802028606068A8B1FFF741FE064619
:1019F0000DE0286840F48030F4E740F4802028604F
:101A0000F7E700BFFFF734FE801B642873D828680F
:101A10008003F7D50CE0FFF72BFE064605E000BF7C
:101A2000FFF726FE801B6428F0D828688003F7D4CF
:101A30002078DFF8AC8280074FF0000A3ED5A74837
:101A4000001D016811F00C0F08D00068C0F3810080
:101A500002280BD1D9F80000400207D4286880077B
:101A600016D5E068012800D112E033E1E068B8B192
:101A70000120C8F80000FFF7FBFD064605E000BFA7
:101A8000FFF7F6FD801B0228C0D828688007F7D52D
:101A90002868216920F0F80040EAC10028600DE0C4
:101AA000C8F800A0FFF7E4FD064604E0FFF7E0FDFC
:101AB000801B02281FD828688007F7D420780007E9
:101AC00022D5864F87486169703771B10121016065
:101AD000FFF7CEFD064604E0FFF7CAFD801B022893
:101AE00009D838688007F7D50EE0C0F800A0FFF7E6
:101AF000BFFD064605E082E0FFF7BAFD801B022825
:101B00007DD838688007F7D42078400768D5DFF89B
:101B1000CCB100270BF13C0BDBF80000C0000BD46C
:101B2000DBF8001041F08051CBF80010DBF800002A
:101B3000012700F0805000906B4E3068C00510D433
:101B4000306840F480703060FFF792FD009005E04F
:101B5000FFF78EFD0099401A022850D83068C00562
:101B6000F6D55E4EA0686C3601280FD00528306887
:101B700010D020F001003060306820F004003060A8
:101B8000A068B8B1FFF774FD00900FE0306840F036
:101B90000100F4E740F004003060F7E7FFF768FD6C
:101BA0000099411A41F28830814266D83068800736
:101BB000F4D50EE0FFF75CFD009007E0FFF758FD5D
:101BC0000099411A41F28830814256D83068800726
:101BD000F4D42FB1DBF8001021F08051CBF80010C5
:101BE000A069C8B33D49091D0968C1F381010229F3
:101BF0004AD00228504607D0C8F8600000E03CE018
:101C0000FFF736FD04463BE04746C8F86000FFF7A3
:101C10002FFD064605E000BFFFF72AFD801B0228C6
:101C20002BD828688001F7D4D4E907010843A16ABA
:101C30002E4A490802EB0141626A41EA82110843D7
:101C400094F82C1040EA0161C9F8001001203866B0
:101C5000FFF70EFD044606E03EE000BFFFF708FD7B
:101C6000001B022809D828688001F7D534E000BF9E
:101C7000FFF7FEFC001B022802D90320BDE8F88F05
:101C800028688001F4D427E00128F7D0D9F80000B3
:101C9000E26900F4800191421CD1226A00F03F0108
:101CA000914217D147F6C071626A0140B1EB821FC1
:101CB00010D1A26A4FF0FF3300F4403103EB52021F
:101CC000B1EB024F06D194F82C1000F07060B0EB2D
:101CD000016F01D00120D1E70020CFE70438024096
:101CE00000004742800E4742007000400000FFFFA6
:101CF00010B5401EB0F1807F01D3012010BD4FF020
:101D0000E02460610F21601701F0CEF80020A0618F
:101D100007202061002010BD7047704770B590F813
:101D20003C20012A32D0012480F83C40022280F875
:101D30003D2003685A689D6822F070060A683243A5
:101D40005A60134B02689A4214D0B2F1804F11D0FE
:101D5000104B9A420ED0104B9A420BD00F4B9A4226
:101D600008D00F4B9A4205D00E4B9A4202D00E4B30
:101D70009A4204D1496825F080031943916080F8A4
:101D80003D40002180F83C10084670BD022070BD27
:101D9000000001400004004000080040000C00402A
:101DA00000040140004001400018004010B504004C
:101DB00003D094F83D0010B107E0012010BD0020D1
:101DC00084F83C00204600F01FF8022084F83D0013
:101DD000211D206800F084FD012084F8460084F86D
:101DE0003E0084F83F0084F8400084F8410084F805
:101DF000420084F8430084F8440084F8450084F8E5
:101E00003D00002010BD000008B50068B0F1804F13
:101E100012D10A48016841F0010101600068002206
:101E200000F00100009011461C20FFF78FFCBDE878
:101E300008401C20FFF77CBC08BD00004038024071
:101E400090F83D10012901D001207047022180F84F
:101E50003D1000681149884214D0B0F1804F11D074
:101E60000F4988420ED00F4988420BD00E49884254
:101E700008D00E49884205D00D49884202D00D494C
:101E8000884204D1816801F00701062903D0016866
:101E900041F0010101600020704700000000014096
:101EA0000004004000080040000C00400004014015
:101EB000004001400018004001680A6A41F2111315
:101EC0001A4207D10A6A9B101A4203D10A6822F00B
:101ED00001020A60012180F83D100020704770B5B2
:101EE000044690F83C000025012817D0012684F80C
:101EF0003C60022084F83D002068826822F077026E
:101F000022F47F4282600868502838D00DDC2028F7
:101F10004FD005DC90B3102811D14AE0022070BDEB
:101F2000302846D040280AD13BE060282FD07028C6
:101F30000DD0B0F5805F03D0B0F5005F12D0012561
:101F400084F83D60002084F83C00284670BDCB68D2
:101F5000D1E90121206800F02BFD2068816841F063
:101F6000770109E0CB68D1E90121206800F020FD6C
:101F70002068816841F480418160E1E719E0CA6826
:101F80004968206800F026FD5021206806E0CA68F4
:101F90004968206800F02FFD6021206800F012FDE4
:101FA000CEE7CA684968206800F014FD4021206827
:101FB000F4E7226801461046F0E770472DE9F0414A
:101FC00004460068C66805694FF00007A90713D5E5
:101FD000B10711D5F91E01610120207720688069C1
:101FE0008007204602D0FFF7E8FF04E000F07EF80B
:101FF000204600F07CF82777680716D5700714D5BF
:1020000021686FF004000861022020772068806951
:1020100010F4407F204602D0FFF7CFFF04E000F02D
:1020200065F8204600F063F82777280715D53007B4
:1020300013D521686FF0080008610420207720681C
:10204000C0698007204602D0FFF7B7FF04E000F028
:102050004DF8204600F04BF82777E80616D5F00635
:1020600014D521686FF010000861082020772068DF
:10207000C06910F4407F204602D0FFF79EFF04E0C5
:1020800000F034F8204600F032F82777E80708D04F
:10209000F00706D021686FF001000861204600F0CB
:1020A00027F8280608D5300606D521686FF080008D
:1020B00008612046FFF730FE680608D5700606D591
:1020C00021686FF040000861204600F012F8A80671
:1020D0000AD5B00608D521686FF0200008612046B7
:1020E000BDE8F041FFF719BEBDE8F08170477047C9
:1020F0007047704738B5044690F84200202801D058
:10210000022038BD51B14AB1012020630020606334
:10211000204600F01DFE216B012901D0012038BDB1
:1021200021680A684968009121680C3151E8002F44
:1021300042F0100241E80023002BF5D138BD000029
:1021400010B50C460D4A0168914216D100F01EF8F8
:102150000B49224601F5807001F0D3FB802108482D
:10216000FEF77AF8802206490648FFF7C3FF0648C3
:102170000068016821F00801016010BD00100140F5
:10218000D40100202C0100207401002010B5044669
:102190000068406994F84110C0F3C010212911D1A2
:1021A00080B12068143050E8001F21F0800140E821
:1021B0000012002AF5D1A06B08B1FEF77BFF204684
:1021C00000F0D0FC2068406994F84210C0F3801001
:1021D000222911D180B12068143050E8001F21F06D
:1021E000400140E80012002AF5D1E06B08B1FEF78B
:1021F00061FF204600F08FFC002010BD70470000FA
:10220000F8B5016804460868CA684B6910F00F0FFA
:102210004FF0000559D003F0010602F490773743E0
:1022200065D0C10705D0D10503D5616C41F001012E
:102230006164410705D5D90703D0616C41F0020103
:102240006164810705D5D90703D0616C41F00401B1
:102250006164010707D502F02001314303D0616CAE
:1022600041F008016164616C00293AD0800604D510
:10227000900602D5204600F083FC20684069616C1E
:10228000C0F38010090700D460B3204600F043FC7F
:1022900020684069400621D52068143050E8001FAE
:1022A00021F0400140E80012002AF5D1E06BA8B10E
:1022B00072490165E06BFEF746FF002811D0E06B24
:1022C000016D01B0BDE8F040084783060FD59306C5
:1022D0000DD52046BDE8F84000F052BC2046FFF77F
:1022E0008DFFF8BD2046FFF789FF6564F8BD266BBA
:1022F0002023012E7ED1C6067CD5D6067AD5086865
:102300004868009048694FF0020640064DD5E26BE0
:10231000106840684FF480770004000C3AD0A18D1B
:10232000814237D9E085D069B8422DD020680C3081
:1023300050E8001F21F4807140E80012002AF5D116
:102340002068143050E8001F21F0010140E800121D
:10235000002AF5D12068143050E8001F21F0400118
:1023600040E80012002AF5D184F842302563206845
:102370000C3050E8001F21F0100140E80012002A44
:10238000F5D1E06BFEF796FE6663A08DE18D401AF5
:1023900081B206E0A18D8142A8D1D069B842A5D111
:1023A00066632046FFF7CCFEF8BDA08DE18D401A94
:1023B00081B2E08D0028F7D00029F5D020680C30DC
:1023C00050E8002F22F4907240E80027002FF5D14A
:1023D0002068143050E8002F22F0010240E8002766
:1023E000002FF5D184F84230256320680C3050E886
:1023F000002F00E006E022F0100240E80023002B4E
:10240000F3D1CDE705062BD5150629D594F8410063
:102410002128C9D1A068B0F5805F01D12069B0B191
:10242000206A411C2162216800784860E08C401ECF
:102430000004000CE084B7D12068C16821F080015D
:10244000C1602068C16841F04001C160F8BD206AE8
:102450000088C0F308004860206A801C2062E5E71D
:102460004006F3D55006F1D5CA68204622F0400256
:10247000CA6084F8413000F0DFF8F8BD1B2A00087C
:1024800070B5040004D094F84100002510B106E0B6
:10249000012070BD84F84050204600F023F824202D
:1024A00084F841002068C16821F40051C1602046D1
:1024B00000F0C8FB2068016921F4904101612068A7
:1024C000416921F02A0141612068C16841F400514D
:1024D000C1606564202084F8410084F8420065638F
:1024E000002070BD70B586B0064614216846FDF721
:1024F000B3FE23493068884240D122480025016854
:1025000041F010010160006800F0100005901D48C6
:102510001438016841F0010101600068694600F06B
:10252000010005904FF4C06000900220CDE9010544
:1025300003200390072004901348FEF79BFF144CE0
:10254000124820604FF00060C4E901054014C4E95E
:1025500003506561A561E561256220466562FEF76D
:10256000D5FE08B1FEF736FBF463002211462520A4
:10257000A663FFF7EBF82520FFF7DAF806B070BD89
:102580000010014044380240000002404064024014
:1025900074010020704770472DE9F843044690F815
:1025A0004100984616460D46202802D00220BDE87C
:1025B000F88385B17EB100206064212084F8410059
:1025C000FFF756F8A6848146E684A0682027B0F578
:1025D000805F02D003E00120E9E7206910B12E46B8
:1025E00000250EE000260CE08021204600F000FCD3
:1025F000A8B9C6B116F8010B21684860E08C401EEE
:10260000E084E08C4B464FF00002CDF800800028BB
:10261000EAD14FF04001204600F0EAFB40B184F8D7
:1026200041700320C3E735F8020BC0F30800E3E76D
:1026300084F841700020BAE77047FEE71FB500211B
:102640001548009101910291124A039102604FF4E2
:102650008032C0E9012101240161047680F8201054
:102660000E4AC0E90A21C461C16080F8304044616B
:10267000FEF7F4FB08B1FEF7ADFA07200094CDE9B0
:10268000014069460448FEF7A9FA002801D0FEF788
:10269000A1FA1FBD002001403C0000200100000FF6
:1026A0000D4808B5016841F480010160006800220E
:1026B00000F48000009011463820FFF747F83820DA
:1026C000FFF736F8002211463A20FFF73FF8BDE841
:1026D00008403A20FFF72CB8303802402DE9F0418D
:1026E00086B014216846FDF7B7FD1E480024016836
:1026F00041F004010160016801F0040105910168E5
:1027000041F080010160016801F0800105910168DC
:1027100041F0010101600068134F00F001000590D5
:10272000002201213846FEF79DFF0122DFF83C80A0
:10273000160231464046FEF795FF01250095CDE98A
:102740000154694638460394FEF794FE0220CDE911
:102750000240CDE9006569464046FEF78BFE06B0B3
:10276000BDE8F0813038024000080240000002401D
:1027700010B586B000241648009401940294039486
:1027800004944FF08041059401605321C0E9011485
:102790004FF6FF71C0E903148461FFF707FB08B12E
:1027A000FEF718FA4FF48050009069460848FFF78A
:1027B00096FB08B1FEF70EFA049404A904480594A8
:1027C000FFF7ACFA002801D0FEF704FA06B010BDFE
:1027D000E4000020114810B50F4901604FF4E131C9
:1027E0004160002181600C22C160C0E90412816156
:1027F000C161FFF745FE08B1FEF7ECF980220849F8
:102800000648FFF777FC054848300068016821F06A
:102810000801016010BD0000001001402C010020E3
:10282000D4010020FEE7FEE770477047FEF726BFA1
:1028300030B593B030216846FDF70EFD14210CA889
:10284000FDF70AFD1D480025016841F08051016037
:10285000006800F0805011901948016841F48041EF
:1028600001600068022400F4804011900120009073
:10287000000401908001CDE9064008AA0420A821A7
:1028800082E813000B906846FFF77CF808B172B637
:10289000FEE70CA90F2081E831004FF4A0500F9003
:1028A0004FF48050109005210CA8FEF781FF0028FE
:1028B00001D072B6FEE713B030BD000040380240D0
:1028C000007000400248016841F4700101607047E7
:1028D00088ED00E00148FFF771BB0000E400002034
:1028E000F0B50268274B284D284E294F294C4FF050
:1028F000804C984209D0604507D0A84205D0B0422C
:1029000003D0B84201D0A04204D122F0700E4A6830
:1029100042EA0E0298421BD0604519D0A84217D057
:10292000B04215D0B84213D0A04211D01A4DA842DF
:102930000ED01A4DA8420BD0194DA84208D0194DFF
:10294000A84205D0184DA84202D0184DA84203D184
:1029500022F44075CA682A434D6922F080022A4356
:102960008D68C5620D688562984201D0A04201D190
:1029700009690163016841F00401016001214161BD
:102980000260F0BD0000014000040040000800406B
:10299000000C0040000401400040014000440140A0
:1029A0000048014000180040001C0040002000408A
:1029B00010B5846842EA032224F47F440A43224388
:1029C000826010BD826822F070020A4342F0070163
:1029D0008160704710B5036A046A24F00104046240
:1029E000846924F0F00444EA021423F00A020A4342
:1029F0008461026210BD10B5036A046A24F01004F9
:102A00000462846923F0A00324F4704444EA02328F
:102A100043EA01118261016210BD10B5806B002193
:102A2000C185FFF7EBFB10BD70B5846B2068406972
:102A300094F84110C0F3C0100025212904D118B129
:102A4000E584204600F08EF82068406994F8421032
:102A5000C0F38010222904D118B1E585204600F08A
:102A60005AF8606C40F0100060642046FFF7C6FB27
:102A700070BD10B50146806B096809684FF000020F
:102A8000C9052ED4C28501680C3151E8003F23F4FA
:102A9000807341E80034002CF5D10168143151E80D
:102AA000003F23F0010341E80034002CF5D1016818
:102AB000143151E8003F23F0400341E80034002C7A
:102AC000F5D1202180F84210016B012909D101685C
:102AD0000C3151E8003F23F0100341E80034002C92
:102AE000F5D14263016B012902D0FFF753FD10BD00
:102AF000818DFFF725FB10BD10B5806B012141636F
:102B0000016B012902D0FFF746FD10BD818D4908F8
:102B1000FFF716FB10BD01680C3151E8002F22F4BD
:102B2000907241E80023002BF5D10168143151E87F
:102B3000002F22F0010241E80023002BF5D1016BA8
:102B4000012909D101680C3151E8002F22F010024F
:102B500041E80023002BF5D1202180F8421000210C
:102B60000163704701680C3151E8002F22F0C00268
:102B700041E80023002BF5D1202180F84110704757
:102B800008B590F84210222901D0022008BD8268C1
:102B90004FF480539A4201D1016921B1816A9A426E
:102BA0001BD04AB10AE00268816A5268C2F3080287
:102BB0000A80816A891C08E0026972B10268526861
:102BC00002F07F020A70816A491C8162C18D491E30
:102BD0000904090CC18503D01BE002685268F1E7C3
:102BE0000168CA6822F02002CA600168CA6822F43B
:102BF0008072CA6001684A6922F001024A6120219C
:102C000080F8421000214163026B012A03D0FFF7D4
:102C1000C1FC002008BD016301680C3151E8002FA0
:102C200022F0100241E80023002BF5D101680A6868
:102C3000D20602D50A6849680091818DFFF780FAB3
:102C4000E7E7000070B5044600680169E26821F416
:102C50004051114301612169A068E269084361693B
:102C6000114308432168CA6849F20C639A4302433E
:102C7000CA6020684169A26921F440711143416131
:102C800031492068884202D03049884202D1FEF79B
:102C900039FE01E0FEF726FEE269002319216425D2
:102CA0003226B2F5004F626828D0A0FB0101930FD5
:102CB0009200FDF787FA0146B0FBF5F06FF01802BD
:102CC000504301EB800006EB0010B0FBF5F000F084
:102CD000F002B1FBF5F002EB0012B1FBF5F06FF082
:102CE0001803584301EB800006EB0010B0FBF5F031
:102CF00000F00F0021681044886070BDA0FB010146
:102D000092185B41FDF75EFA0146B0FBF5F0020157
:102D1000B1FBF5F06FF01803584301EB800006EBB0
:102D2000C000B0FBF5F000F0F80002EB4002B1FB90
:102D3000F5F0584301EB800006EBC000B0FBF5F066
:102D400000F00700D6E70000001001400014014029
:102D500038B58162044682850020134660642222D1
:102D600084F84220E56B1F4AEA63E56B1E4A2A6439
:102D7000E56B1E4AEA64E26B10650A462168E06B67
:102D8000091DFEF72DFB30B110206064202084F86F
:102D90004200012038BD2068016840680090206929
:102DA00048B120680C3050E8001F41F4807140E8C1
:102DB0000012002AF5D12068143050E8001F41F0BD
:102DC000010140E80012002AF5D12068143050E8D3
:102DD000001F41F0400140E80012002AF5D1002018
:102DE00038BD0000732A0008F92A0008292A0008C3
:102DF0002DE9F843984617460D460446089E24E000
:102E0000701C22D0FEF734FCA0EB0800B0421AD8A8
:102E1000CEB12068C168490717D5802D15D0402D47
:102E200013D00168C94309070FD401680025406821
:102E300000902046FFF76FFE0820606484F8405041
:102E40000120BDE8F8830320FBE72068006835EA2D
:102E5000000004D00020B842D2D00020F1E70120C9
:102E6000F9E700000148FFF7CBB900002C01002072
:102E7000FEE700007CB50C001D461646014601D059
:102E8000601E00E00020CDE90010064B6A4629468E
:102E9000304600F0EBF8002C02D0009A00211170AF
:102EA0007CBD0000733700080907090E002804DB09
:102EB00000F1E02080F80014704700F00F0000F1EE
:102EC000E02080F8141D704702E008C8121F08C1F6
:102ED000002AFAD170477047002001E001C1121F9B
:102EE000002AFBD1704700002DE9FF5F82B000216E
:102EF000DDE90430020DDDF840B0034318D044F69C
:102F00001050A2F2FF3242431514119801281FD02D
:102F1000A5EB0B00401C5FEA000A4FF000064E4F85
:102F2000DFF83891B046504615D5CAF1000413E0D9
:102F3000119801244AA3012801D16FEA0B010298DC
:102F4000119AC0E90031C0E9024206B0BDE8F09F25
:102F5000CBF10000DFE704460021404A491842EB6C
:102F60000450CDE9001012E0E00707D032463B469E
:102F700040464946FDF757FA8046894632463B4669
:102F800010461946FDF74FFA06460F466410002C0E
:102F9000EAD1DDE90401DDE90023BAF1000F06DA28
:102FA000FDF741FA42464B46FDF73DFA05E0FDF7D5
:102FB000ACFA42464B46FDF7A8FA04460E460022FC
:102FC000284BFDF729FB03D84FF0FF30014607E0FF
:102FD0000022254B20463146FDF77EF9FDF704FB24
:102FE000102409E0002C0ADB0A220023FDF7EAF88E
:102FF000039B30321A55641E50EA0102F2D1641C60
:10300000039AC4F111031444119A012A03D0012236
:1030100008430DD10AE0084304D000204FF0110B03
:10302000119072E7A3EB0B056D1E0DE05B4504DD0F
:103030004FF0000205F1010504E003DA4FF0000251
:10304000A5F10105002AECD002981199C0E90231DE
:10305000C0E9004579E70000000014400000F03F9F
:10306000300000000000F0430000E03F2DE9FF4F7A
:1030700095B09A46884606460025EEE1252877D188
:1030800000242746F94A0121039400E0044316F87E
:10309000013F203B01FA03F01042F7D130782A2893
:1030A00011D06FF02F033078A0F13002092A16D822
:1030B000039A44F0020402EB820203EB4202104442
:1030C000761C0390EFE758F8042B0392002A03DAEA
:1030D000504244F40054039044F00204761C3078CB
:1030E0002E2816D116F8010F44F004042A280DD01A
:1030F0006FF02F023078A0F13003092B09D807EBCD
:10310000870302EB4303C718761CF3E758F8047BE8
:10311000761C30786C280FD006DC4C2817D0682835
:103120000DD06A2814D104E0742810D07A280FD169
:103130000DE044F400140AE044F4801401E044F487
:1031400040147278824202D104F58014761C761CF9
:10315000307866280BD013DC582877D009DC00289B
:1031600075D04528F6D04628F4D047281AD193E1E7
:1031700018E0632835D0642879D0652812D18BE116
:10318000702873D008DC6728F1D069286FD06E28CA
:103190000DD06F2806D1ACE073282CD0752874D0E0
:1031A000782853D05246179990476D1C54E1C4F3C8
:1031B0000250022809D003280DD0D8F800100428A6
:1031C0000DD00D6008F1040846E1D8F80010EA17A8
:1031D000C1E90052F6E7D8F800100D80F2E70D7053
:1031E000F0E718F8041B8DF8001000208DF801009E
:1031F000EB46012003E058F804BB4FF0FF306107B5
:103200004FF0000102D40DE009F101018946B942F5
:103210000FDA8145F8DB1BF809100029F4D108E02A
:1032200009F1010189468142FADB1BF809100029E6
:10323000F6D103985346A0EB090721463846179A62
:1032400000F080FA284400EB090507E044E008E1BB
:103250000DE01BF8010B524617999047B9F101098F
:10326000F7D2534621463846179AF2E039E00A2150
:10327000C4F302524FF0000B0091022A06D058F816
:10328000040BC117032A09D00AE023E008F1070064
:1032900020F00702F2E80201904605E000B2C117F3
:1032A000042A01D140B2C117002906DA0A460021DA
:1032B000404261EB02012D2202E0220504D52B22BF
:1032C0008DF80420012203E0E20701D02022F7E775
:1032D000914657E00A2100E010214FF0000B0091C9
:1032E0000BE010214FF0000B44F00404082700917C
:1032F00003E008204FF0000B0090C4F30252022AB2
:1033000005D058F8040B0021032A08D008E008F182
:10331000070020F00702F2E80201904603E080B2C5
:10332000042A00D1C0B24FF0000922072AD5327812
:10333000702A07D0DDF800C08CF0100C5CEA0B0C92
:1033400005D00EE040228DF80420012208E050EA6A
:10335000010306D030238DF804308DF805200222B9
:103360009146009B83F0080353EA0B030AD150EA0D
:10337000010201D1620705D530228DF804204FF0FB
:1033800001097F1E3278582A04D039A20C920CAA67
:1033900002920BE03BA2F9E75B46009AFCF712FFB2
:1033A0000C9B9B5C029A521E0292137050EA01021F
:1033B000F2D1029804A9081A00F1200B600702D587
:1033C00024F4803400E001275F4502DDA7EB0B0009
:1033D00000E0002000EB0B01009003984944401AE4
:1033E0000390E00306D453462146179A039800F051
:1033F000A9F90544002706E001A85246C05D1799C7
:1034000090476D1C7F1C4F45F6DBE0030CD55346FF
:103410002146179A039800F095F9054404E03020FE
:103420005246179990476D1C0099481E009000293C
:10343000F5DC08E00298029952460078491C029196
:10344000179990476D1CBBF10001ABF1010BF1DC4A
:103450005BE100F065F90544761C307800287FF4C4
:103460000DAE19B02846BDE8F08F00000928010014
:1034700030313233343536373839616263646566EA
:1034800000000000303132333435363738394142AC
:103490004344454600000000600700D4062708F1B9
:1034A000070020F00700F0E80223804603F0004CFC
:1034B0005FEA0C0001D097A009E0200501D596A095
:1034C00005E0E00701D095A001E0AFF24C001390B9
:1034D000307823F0004365280CD006DC452809D05D
:1034E00046281DD047287FD13BE0662818D06728A2
:1034F0007AD136E00021112F01DB112000E0781C89
:10350000CDE9000104A90CA8FFF7EEFCDDE90D01EF
:103510000C9A4FF0000B07F10109109200914EE058
:103520004FF000400097CDE9011004A90CA8FFF767
:10353000DBFCDDE90D020C9B0F994FF0000B91466F
:103540001093009211B9791C00EB0109B7EB090047
:1035500003D4C0F1FF3B07F10109A9EB070001907B
:1035600042E0012F00DA01270021112F01DD112097
:1035700000E03846CDE9000104A90CA8FFF7B4FC2F
:10358000DDE90D010C9A00914FF0000BB946109245
:1035900021070FD4009A4A4503DA914601E0A9F1C8
:1035A0000109B9F1010F05DD109AA9F10101515C82
:1035B0003029F4D0B84202DA10F1040F03DA012105
:1035C000CDE9011010E0002803DC8344A9EB0001E1
:1035D00002E0411C494500DD8946A0EB0B00401C80
:1035E00001904FF000400290200705D40198484513
:1035F00002DB4FF0FF30019000208DF84B00029865
:103600000DF14B07B0F1004F25D002200C902B207C
:103610000D90029800280CDA404202902D200D9067
:1036200007E00A210298FCF722FE3031029007F8E9
:10363000011D0C99481E0C900029F2DC029800280C
:10364000EFD1791E0D980870307800F0200040F01E
:10365000450007F8020D11A8C01BC01D0290139869
:10366000007800B1012000EB0901019801EBE07145
:10367000029801440398401A401E0390E00306D4C8
:1036800053462146179A039800F05CF805441398B6
:10369000007818B15246179990476D1CE00323D566
:1036A00053462146179A039800F04CF805441BE056
:1036B000BBF1000F07DB0098584504DD10981799FF
:1036C00010F80B0001E017993020524690470198FE
:1036D0000BF1010B401E05F10105019004D12E20D4
:1036E0005246179990476D1CB9F10001A9F10109E3
:1036F000DEDC05E017F8010B5246179990476D1C68
:103700000299481E02900029F4DC53462146179A7C
:1037100003989EE62D0000002B0000002000000012
:103720002DE9F041044600251E461746880404D4BE
:1037300005E039462020B0476D1C641EF9D52846A7
:10374000BDE8F0812DE9F041044600251E46904673
:10375000C80301D5302700E02027880404D505E000
:1037600041463846B0476D1C641EF9D52846BDE871
:10377000F0814A68002A06D00A68531C0B6010705A
:103780004868401E48607047064910B5481CFDF760
:1037900059F9044804A103784278BDE8104007486D
:1037A00000F02CB83800002074656D703A25642C48
:1037B00068756D693A25640D0A0000002C0100202F
:1037C0007047FDF763FFFFF733F8FEF787FFFEF75B
:1037D00067FFFEF7FFFFFEF731FFFEF7C9FF00F0BE
:1037E000DDF800F0E9F8FCE7202202490248FDF785
:1037F000B5BB0000600300203C0000200FB44FF474
:10380000007130B5ADF5017D054686AB6846859AF9
:10381000FFF730FB044682B2FF2369462846FEF7D5
:10382000BBFE0DF5017D204630BC5DF814FB10B5E4
:10383000044600F0A2F8002808D0012807D0E0884C
:103840004108A0884008814204D9081A10BDB4F983
:10385000080010BDB4F90820401A101A10BD70B548
:1038600015460E46040018D0FFF7E1FF00282FD0C0
:10387000A84200D285B2B4F90810A088A1EB50028A
:103880002168AA4201EB500109DD2A463046FCF7C7
:10389000CAFCA08805EB500116E0AFF3008030466B
:1038A000FCF7C1FCB4F90800A188A0EB51002A1A6A
:1038B00030442168FCF7B7FCA088C14361F30000E5
:1038C0002189A1EB5001691A61F34F00A0802846BD
:1038D00070BD10B508B1002A01DCAFF30080037998
:1038E000002403F0010364F300038380837903F071
:1038F000010364F30003C380016022F0030101812E
:1039000010BD70B515460E4604001AD0FFF78FFFA4
:10391000B4F90810081A0004000C2DD0A84200D2F7
:103920000546E088A1EB50022168AA4201EB500055
:1039300009DD2A463146FCF776FCE08805EB5001AC
:1039400016E0AFF300803146FCF76DFCB4F90800D7
:10395000E188A0EB51002A1A81192068FCF763FC6A
:10396000E088C14361F300002189A1EB5001691A8D
:1039700061F34F00E080284670BD8188C0884A0806
:10398000B2EB500F07D1C907B1EBC07F01D10020C6
:1039900070470120704702207047000010B500F00A
:1039A00029F8FFF721FFFCF7EDFF0249032008701B
:1039B00010BD0000100000202DE9F0410C4D002446
:1039C0002E1F10E0FDF754FE04EB440205EB8201CC
:1039D000D1E901373B44834203D8886055F822007F
:1039E0008047641CE4B230788442EBD3BDE8F081B8
:1039F0001400002002498022A1F10C00FFF769BFEA
:103A0000E002002010B50C48FFF711FF0204120C71
:103A100011D0094908488039FFF721FF064A07A15C
:103A2000803A0A48FFF7EAFE03488021BDE81040CB
:103A30008038FCF711BC10BDD4020020756172748F
:103A400020646174613A2025730A00002C01002073
:103A5000000610160006101600000000000000000E
:103A60000102030406070809000000000102030424
:103A7000903A0008000000203C000000C82E00081A
:103A8000CC3A00083C000020A4070000D82E000813
:103A90000100000010000000000000000024F400FD
:103AA00000000000C1370008010000000000000015
:103AB000053A00080A0000000000000089370008ED
:0C3AC00064000000000000000000000096
:040000050800018965
:00000001FF
