:020000040800F2
:1000000098080020A101000857350008EB2D0008D2
:1000100055350008290B0008A13B0008000000002E
:100020000000000000000000000000005B35000838
:10003000010D000800000000593500085D3500087A
:10004000BB010008BB010008BB010008BB010008A0
:10005000BB010008BB010008BB010008BB01000890
:10006000BB010008BB010008BB010008BB01000880
:10007000BB010008BB010008BB010008BB01000870
:10008000BB010008BB010008F5090008BB0100081E
:10009000BB010008BB010008BB010008BB01000850
:1000A000BB010008BB010008BB010008BB01000840
:1000B00005360008BB010008BB010008BB010008B1
:1000C000BB010008BB010008BB010008BB01000820
:1000D000BB010008953B0008BB010008BB010008FC
:1000E000BB010008BB010008BB010008BB01000800
:1000F000BB010008BB010008BB010008BB010008F0
:10010000BB010008BB010008BB010008BB010008DF
:10011000BB010008BB010008BB010008BB010008CF
:10012000450C0008BB010008510C0008BB01000889
:10013000BB010008BB010008BB010008BB010008AF
:10014000BB010008BB010008BB010008BB0100089F
:10015000BB010008BB010008BB010008BB0100088F
:10016000BB010008BB010008BB010008BB0100087F
:10017000BB010008BB010008BB0100080000000033
:10018000BB010008BB010008DFF810D000F0D8FB6D
:1001900000480047E95E0008AFF30080980800209F
:1001A0000648804706480047FEE7FEE7FEE7FEE711
:1001B000FEE7FEE7FEE7FEE7FEE7FEE7F5350008AF
:1001C000890100082DE9F05F0546002092469B4614
:1001D00088460646814640241BE02846414647465D
:1001E000224600F05EFA53465A46C01A914110D397
:1001F00011461846224600F045FA2D1A67EB010811
:100200004F4622460120002100F03CFA17EB00097E
:100210004E41201EA4F10104DFDC484631462A4647
:100220004346BDE8F09F2DE9F0410024061B25461A
:1002300071F1000605DA01240027D0EB070067EB17
:100240000101161E73F1000605DA0027D2EB070242
:10025000012567EB0303FFF7B5FF86460E461746F9
:100260009C46AC4204D00025D0EB050E65EB0106A0
:1002700024B10020D2EB000760EB030C704631463E
:100280003A466346BDE8F08140EA01039B0703D08C
:1002900009E008C9121F08C0042AFAD203E011F8C5
:1002A000013B00F8013B521EF9D27047D2B201E087
:1002B00000F8012B491EFBD270470022F6E710B56B
:1002C00013460A4604461946FFF7F0FF204610BDC4
:1002D00030B504460020034600E05B1C934203D285
:1002E000E05CCD5C401BF8D030BD2DE9FE4F804670
:1002F00081EA0300C00F0C46009021F0004123F07A
:100300000045B8EB0200A94105D24046214690467F
:100310001C460B46024623F00040104347D0270DF1
:10032000C7F30A00C3F30A510290401A0190402813
:100330006BDAC3F3130040F4801B0098924620B19F
:100340000023D2EB030A63EB0B0B01985946C0F173
:100350004002504600F096F906460D465046594672
:10036000019A00F0AEF910EB08006141002487EA21
:10037000115284EAE7731A4340D0009A62B3019A9B
:10038000012A4FEA075215DC001B61EB02014FF016
:10039000004202EA0752CDE90042001C41F58011FB
:1003A00032462B4600F0E5F903B0BDE8F08F404639
:1003B0002146F9E7001B61EB0201001C41F58013A7
:1003C00000185B412018A2F5001747EB030140EA33
:1003D000D570B6196D4111E06D084FEA360645EA51
:1003E000C0754FEA0752001B61EB0201001C41F58A
:1003F000801149084FEA30000019514132462B461E
:1004000003B0BDE8F04F00F0A5B90098012240000C
:100410000023D0EB020263EBE073009821464FEA21
:10042000E074B8EB000061EB0401E9E783F00043FE
:100430005BE781F0004158E72DE9FE4F81EA0304B4
:1004400004F0004421F0004100944FF0000B23F031
:10045000004350EA01045ED052EA03045BD0C3F3C8
:100460000A54C1F30A552C44A4F2F3340194A0FBBE
:100470000254C1F3130141F48011C3F3130343F495
:10048000801301FB024400FB034E840A970A44EAEE
:10049000815447EA8357A4FB076802958D0A05FB40
:1004A00007854FEA932C04FB0C542705029D4FEA65
:1004B000065847EA1637B5EB08056EEB070C870EB2
:1004C000920E47EA811742EA8312A7FB0201B6EBBC
:1004D0000B0164EB00042B0D43EA0C335E1844EB74
:1004E0001C50DA465146E7FB0201C5F313044FEAFC
:1004F0000B3343EA14534FEA0432019C43EA0603E8
:10050000A4F10C040294009CCDE900B400F031F990
:1005100003B0BDE8F08F00200146F9E72DE9F04D6A
:1005200081EA030404F0004B21F0004514464FF02B
:10053000000A23F0004150EA050220D054EA0102EB
:100540001DD0C5F30A570246C5F31303C1F31300C8
:10055000C1F30A5640F4801543F48013A7EB060854
:10056000101BD64608F2FD3873EB050002D308F1E4
:10057000010801E092185B41B8F1000F03DA002096
:100580000146BDE8F08D00204FF4801106468446F8
:100590000EE0171B73EB050705D3121B63EB050376
:1005A00006434CEA010C49084FEA300092185B41BF
:1005B00050EA0107EDD152EA030012D082EA0400AA
:1005C00083EA0501084305D0101BAB4106D2012286
:1005D000002306E000224FF0004302E06FF001022A
:1005E00053101AEB06004CEB085110EB0A0041EBDC
:1005F0000B01BDE8F04D00F0ADB800F0004230F066
:1006000000400AD0C10D01F56071C0F3160042EA46
:100610000151C2084007114370470020014670474E
:1006200001F0004330B421F0004150EA010206D04D
:100630000A0DA2F56072C1F31301002A02DC30BC7E
:1006400000207047440F44EAC104C100E01830BCE8
:1006500000EBC25000F047B830B50B460146002011
:100660002022012409E021FA02F59D4205D303FA74
:1006700002F5491B04FA02F52844151EA2F10102F5
:10068000F1DC30BD202A04DB203A00FA02F1002020
:1006900070479140C2F1200320FA03F319439040C0
:1006A0007047202A04DB203A21FA02F0002170472B
:1006B00021FA02F3D040C2F12002914008431946CA
:1006C0007047202A06DBCB17203A41FA02F043EAB2
:1006D000E07306E041FA02F3D040C2F120029140FB
:1006E0000843194670470029A8BF7047401C4900BD
:1006F00008BF20F00100704710B4B0FA80FC00FA87
:100700000CF050EA010404BF10BC704749B1CCF1B1
:10071000200421FA04F411FA0CF118BF012121433D
:100720000843A3EB0C01CB1D4FEA00614FEA1020F8
:1007300042BF002010BC704700EBC350104400299A
:10074000A4BF10BC7047401C490008BF20F0010046
:1007500010BC704710B5141E73F1000408DA401C79
:1007600041F1000192185B411A4301D120F00100D0
:1007700010BD2DE9F04D92469B4611B1B1FA81F2C0
:1007800002E0B0FA80F220329046FFF77BFF044689
:100790000F4640EA0A0041EA0B0153465A46084315
:1007A00013D0114653EA010019D0C8F14002504657
:1007B000FFF777FF05460E46504659464246FFF77B
:1007C00061FF084305D0012004E020463946BDE81A
:1007D000F08D0020054346EAE0762C4337430A9823
:1007E0006305E40AA0EB08000022FD0A44EA47542E
:1007F0000A3002D500200146E9E7010510196941D8
:10080000DDE9084500196941BDE8F04DA2E72DE991
:10081000F04D00231A461B1A8A4103DB00200146D3
:10082000BDE8F08DC1F30A52C1F3130141F4801504
:100830004FF0000BD10702D100186D41521E002766
:10084000044640F2FF11384601EB620A3E468046FC
:10085000024600204FF48011FFF723FFC2197141B7
:10086000BB1846EB0100B4EB030C75EB000C04D392
:10087000E41A65EB000517460E46241908F101003D
:100880006D4180463428E3DDF91946EB0600091B6B
:10089000A84103D24FF0FF32134601E00022134675
:1008A0001BEB070046EB0A51BDE8F04DFFF752BFC6
:1008B000C1F30A52C1F3130140F2FF3341F4801136
:1008C0009A4202DA00200146704740F233439A42CE
:1008D000A2F2334202DC5242FFF7E3BEFFF7D2BE80
:1008E00030B5041E71F1000404DB4FF000444042B7
:1008F00064EB0101141E73F1000405DB1C464FF08C
:100900000043524263EB04038B4208BF824230BD76
:1009100030B5041E71F1000404DB4FF00044404286
:1009200064EB0101141E73F1000405DB1C464FF05B
:100930000043524263EB0403994208BF904230BD2A
:10094000064C074D06E0E06840F0010394E807001C
:1009500098471034AC42F6D3FFF71AFCE880000841
:100960000881000810B50146806B026C12F0500F30
:1009700005D0026CD20626D500F088FA10BD016CB5
:1009800041F40071016401688A6812F0405F17D178
:10099000027EAAB9CA6A12F4700F02D08A685205A0
:1009A0000ED44A6822F020024A60016C21F4807162
:1009B0000164016CC90403D4016C41F001010164BC
:1009C00000F062FA10BD806BC26CBDE810400846B2
:1009D000104710B5806B40210164416C41F0040167
:1009E000416400F053FA10BD10B5806B00F04DFA71
:1009F00010BD0000014800F04ABA0000900000203D
:100A0000464910B54A6822F440324A604A68436851
:100A10001A434A6001684A6822F480724A60016899
:100A20004A68036942EA03224A6001684A6822F080
:100A300040724A6001684A6883681A434A600168E4
:100A40008A6822F400628A6001688A68C3681A436F
:100A50008A60816A6FF07062D14201688A6822F010
:100A600070628A6001688A680CD0836A1A438A605F
:100A700001688A6822F040528A6001688A68C36A05
:100A80001A4301E022F040528A6001688A6822F02D
:100A900002028A6001688A68037E42EA43028A6031
:100AA00090F82010002901684A680FD042F40062D3
:100AB0004A6001684A6822F460424A6001684A68F4
:100AC000174C436A04EB43331A4301E022F40062FB
:100AD0004A600168CA6A22F47002CA620168CA6A7E
:100AE000838B104C04EB03531A43CA6201688A6873
:100AF00022F400728A6001688A6890F8303042EA15
:100B000043228A6001688A6822F480628A600168F0
:100B10008A68406942EA8020886010BD0023014055
:100B200000E0FFFF0000F0FFFEE7000030B585B0F9
:100B3000002414216846FFF7C0FB4FF4807000903A
:100B400000200190012002906946134800F042FD08
:100B5000124D04E0641CE4B2012000F0D3F8D5F893
:100B6000200210B1642CF5D30DE0642C0BD20024CC
:100B700004E0641CE4B2012000F0C4F8D5F82002BF
:100B800020B1642C05D3012005B030BD642CF0D316
:100B9000F9E70020F8E700000000024000004042B2
:100BA00030B587B014216846FFF787FB1048002155
:100BB000026842F00102026000684FF4807400F0A5
:100BC0000100009405900120CDE901010220094DAA
:100BD00003906946284600F0FDFC01222146284684
:100BE00000F0F0FD00F008F8FFF7A0FF07B030BDFF
:100BF000303802400000024030B585B0142168460C
:100C0000FFF75BFB4FF480700125CDE90005022062
:100C100003906946094800F0DDFC094C0020C4F847
:100C2000A002142004F5287400F0C2FC256005B071
:100C30001E20BDE8304000F065B800000000024012
:100C400000004042014800F041BB0000D8000020F5
:100C5000014800F03BBB00001C0200200168182383
:100C6000CAB2103AB2FBF3F2054B6FF30901032A43
:100C70009B5CC36500D9091D81650846704700006B
:100C80008C73000810B5014600208B698A6A4FF00A
:100C9000C07453B1B3F5005F15D072B1012A0CD006
:100CA000022A0AD0032A09D104E01AB1012A06D087
:100CB000022A03D1C96AC90100D5012010BDC96A41
:100CC000A142FAD010BD002AF7D0012AF2D0022AA0
:100CD000F3D0032AF3D010BD30B50468256825F49D
:100CE00080252560046863608368402B036803D017
:100CF00099600068C26030BD9A600068C16030BD14
:100D00007047000070B54FF6FA75094E281A84B284
:100D100030684462304601F06BFC306801E0416AA3
:100D20008CB2AC42FBD3BDE87040014801F09CBCE2
:100D30008C01002072B6FEE77047000078B50024F1
:100D4000009490F83C20012A19D0012280F83C2020
:100D50000A6807230568092A13D9EE680A3A02EBE4
:100D6000420293409E43EE600B788A680A3B03EB95
:100D700043039A400368DD682A43DA6010E00220EA
:100D800078BD2E6902EB420293409E432E610B78A0
:100D90008A6803EB43039A4003681D692A431A617A
:100DA0004A681F23072A13D205686E6B521E02EB96
:100DB000820293409E436E630B790A885B1E92B257
:100DC00003EB83039A4003685D6B2A435A6327E071
:100DD00005680D2A12D22E6BD21F02EB82029340BD
:100DE0009E432E630B790A88DB1F92B203EB8303C9
:100DF0009A4003681D6B2A431A6311E0EE6A0D3AAC
:100E000002EB820293409E43EE620B790A880D3B0F
:100E100092B203EB83039A400368DD6A2A43DA62E5
:100E2000164B0568144A9D4206D10D68122D03D158
:100E3000556845F48005556005689D4218D10B68DA
:100E4000102B01D0112B13D1536843F400035360CE
:100E5000096810290CD10A490A4A0968B1FBF2F164
:100E600001EB8101490000E0491E00910029FBD1FE
:100E700080F83C40002078BD002301400020014064
:100E80000C00002040420F0070477047704770B55B
:100E9000044600680668456816F0020F05F0200158
:100EA0002AD049B3216CC90603D4216C41F40071E6
:100EB0002164816811F0405F17D1217EA9B9C16A10
:100EC00011F4700F02D0816849050ED4416821F0F9
:100ED00020014160206C20F480702064206CC004EC
:100EE00003D4206C40F0010020642046FFF7CCFFC3
:100EF00021686FF01200086016F0040F05F0800101
:100F000032D089B3206CC00603D4206C40F400506A
:100F100020642068816811F4401F1ED1816B11F498
:100F2000401F02D08168490517D44168490514D48F
:100F3000816811F0405F10D1217E71B9416821F0C4
:100F400080014160206C20F480502064206CC0053A
:100F500003D4206C40F0010020642046FFF7ECFE33
:100F600021686FF00C00086016F0010F05F04001D9
:100F70000FD071B120680068C0070AD0206C40F41F
:100F800080302064204600F043F821686FF00100B3
:100F9000086016F0200F05F080610ED000290CD0FB
:100FA000606C40F00200606420686FF0200505600E
:100FB0002046FFF76BFF2068056070BD70B5040028
:100FC0004FF0000503D0206C002610B107E001208F
:100FD00070BD204600F01EF8666484F83C60206C0A
:100FE000C00610D4206C20F4885040F00200206429
:100FF0002046FFF705FD6664206C20F0020040F0FB
:101000000100206400E0012584F83C60284670BDA2
:101010007047000070B586B0064614216846FFF799
:101020004CF92149306888423CD1204800250168AC
:1010300041F480710160006800F4807005901B48E5
:101040001438016841F0010101600068694600F050
:1010500001000590022000900320CDE9010514480D
:1010600000F0B8FA144C1348C4E900050015A56057
:10107000C4E90350800060618000A0618011C4E970
:1010800007052046656200F0F1F908B1FFF752FE4E
:10109000B463002211461220A66300F02FFF122035
:1010A00000F01EFF06B070BD002001404438024031
:1010B0000000024010640240D8000020F8B50E463F
:1010C00000210446009190F83C0013460A4601288E
:1010D00007D0012084F83C0020688568ED0702D025
:1010E00011E00220F8BD856845F0010585604048A3
:1010F000404D0068B0FBF5F000EB400000E0401E02
:1011000000900028FBD120688568ED0503D585682F
:1011100025F48075856020688568ED075DD0226CB8
:1011200040F20165AA4342F480722264406840059F
:1011300005D5206C20F4005040F480502064206CD1
:10114000C00404D5606C20F00600606400E06164B7
:1011500084F83C10A16B2948274DC863A16B28482F
:101160000864A16B2748C86421686FF022000860FA
:101170002068416841F0806141602068816841F4E5
:1011800080718160216832464C31A06B00F0D8F943
:10119000024668681C49C006206806D0884224D1EF
:1011A000816811F0405F13D01FE08842F8D0174BE0
:1011B000984203D1D1F80433DB06F1D0144B9842A6
:1011C00013D1D1F8041301F01F011029E8D30CE06A
:1011D000816841F08041816007E0206C40F01000A0
:1011E0002064606C40F0010060641046F8BD0000AF
:1011F0000C00002040420F00002301406509000858
:10120000E9090008D309000800200140002101403D
:10121000002201402DE9F0410446876D00F0D8FA24
:10122000064694F835000025022806D08020606527
:1012300084F834500120BDE8F0812068016821F075
:10124000160101602068416921F080014161206C34
:1012500008B9A06C20B12068016821F00801016084
:101260002068016821F0010101600CE000F0B0FA93
:10127000801B052807D920206065032084F83500ED
:1012800084F83450D7E720680068C007EED194F89E
:101290005C103F208840B860012084F8350084F855
:1012A00034500020C7E790F83510022903D0802180
:1012B000416501207047052180F8351000680168FC
:1012C00021F0010101600020704700002DE9F84382
:1012D00004464FF00009CDF8009063484FF41651D2
:1012E000A56D0068B0FBF1F72E6894F85C1008203B
:1012F00000FA01F131420FD021680A6852070BD57C
:101300000A6822F004020A6094F85C108840A86021
:10131000606D40F00100606594F85C104FF00108CA
:1013200008FA01F0304208D021684969090604D55D
:10133000A860606D40F00200606594F85C100420C5
:101340008840304208D021680968890704D5A86020
:10135000606D40F00400606594F85C1010208840D7
:10136000304218D021680968090714D5A8602068A0
:101370000168490304D50068000308D5A16C07E0A3
:101380000168C90503D4016821F008010160216CDE
:1013900009B12046884794F85C10202088403042EC
:1013A00031D021680968C9062DD5A86094F83500A8
:1013B00005282068016806D0490347D50068000366
:1013C0001DD4616C1CE021F01601016020684169A8
:1013D00021F080014161206C08B9A06C20B1206827
:1013E000016821F00801016094F85C103F208840FA
:1013F000A86084F8358084F83490216D1FE0E16B9B
:1014000009B120468847606D00282BD0606DC00769
:1014100014D0052084F835002068016821F001010E
:1014200001600098401C0090B84203D82068006812
:10143000C007F6D184F8358084F83490E16C002937
:1014400010D001B02046BDE8F04308470168C90547
:10145000D5D4016821F01001016084F8358084F84A
:101460003490CCE7BDE8F8830C0000202DE9F04172
:10147000044600F0ADF906465CB1022084F8350060
:10148000002584F834502068016821F001010160D2
:101490000DE00120BDE8F08100F09AF9801B0528DD
:1014A00005D920206065032084F83500F2E7206824
:1014B0000068C007F0D12268116820480140D4E9D3
:1014C00001031843D4E903363343184363691843CF
:1014D000A3691843E3691843236A18430843616A00
:1014E000042903D1D4E90B13194308431060206881
:1014F0004069666A20F0070130460E430127042840
:101500000CD1A06A0643E06A40B12046FFF7BAFB5F
:1015100020B14020606584F83570BAE720684661E4
:101520002046FFF79BFB94F85C203F2191408160AF
:10153000656584F835700020ACE700003F8010F04E
:101540002DE9F0410446866D90F83400002501280D
:101550000DD0012084F8340094F835700020012F5C
:1015600007D084F8340002252846BDE8F081022027
:10157000FBE7022784F8357060652046FFF7ACFB77
:1015800094F85C103F208840B0602068016841F00A
:1015900016010160206C20B12068016841F008014B
:1015A00001602068016841F001010160DCE7000092
:1015B00070B5044600F00CF90546601C02D00448E2
:1015C0000078044400F004F9401BA042FAD370BD37
:1015D000000000202DE9F84FDFF8BCA10022012512
:1015E00003264FF00F090AF1040BAAF1040E00BF05
:1015F0000B6805FA02F42340A34270D10F7907F07B
:101600000307012F01D0022F16D187684FEA420845
:1016100006FA08FC27EA0C07D1F80CC00CFA08FC03
:101620004CEA070CC0F808C04768A7430C79C4F31C
:10163000001494403C4344600C79E443A4070AD06E
:10164000C4684FEA420C06FA0CF7BC438F6807FAED
:101650000CF72743C7600C7904F00304022C12D165
:10166000D40800EB840CDCF820405707FF0E09FA81
:1016700007F824EA0804D1F8108008FA07F848EAC5
:101680000408CCF8208004684FEA420C06FA0CF7F4
:10169000BC430F7907F0030707FA0CF727430760ED
:1016A0004C6814F4403F70D03C4C276847F48047A6
:1016B0002760246822F0030704F480440094384C27
:1016C00007EB040CDCF8084897074FEA177809FA8B
:1016D00008F7BC43334FB84202D1002724E054E05E
:1016E000314FB84201D101271EE0304FB84201D13D
:1016F000022719E02E4FB84201D1032714E02D4FE5
:10170000B84201D104270FE02B4FB84201D1052781
:101710000AE02A4FB84201D1062705E0284FB84217
:1017200001D1072700E0082707FA08F72743CCF87C
:101730000878DAF800405746D1F804C09C435FEAC5
:10174000CC2C00D51C433C60DBF800405F46D1F850
:1017500004C09C435FEA8C2C00D51C433C60DEF83F
:1017600000407746D1F804C09C435FEA8C3C00D52A
:101770001C433C60084F083F3C68D1F804C09C43C0
:101780005FEACC3C00D51C433C60521C102AFFF49D
:101790002FAFBDE8F88F0000083C014044380240FC
:1017A00000300140000002400004024000080240F6
:1017B000000C0240001002400014024000180240D9
:1017C000001C02400AB1816170470904FBE7000078
:1017D00001488068704700000000002070B50400D8
:1017E00025D094F83D00002520B984F83C502046CF
:1017F00000F0E8FA242084F83D002068016821F018
:10180000010101602068016841F400410160206825
:10181000016821F40041016000F03CFC4D4A616820
:10182000914201D84C4900E04C49884201D2012044
:1018300070BD4B492368B0FBF1F15E6826F03F06AE
:101840000E435E606368934206D94FF49673594322
:101850004FF47A73B1FBF3F12368491C1E6A26F03A
:101860003F06314319626168914210D84900401E19
:10187000B0FBF1F2521CC2F30B02042A01D2042085
:1018800022E0B0FBF1F0401CC0F30B001CE0A268AA
:10189000F2B301EBC10303EB0116431EB3FBF6F3F6
:1018A0005B1C43F480431B0549D092B301EBC1029A
:1018B00002EB0111401EB0FBF1F0401CC0F30B0025
:1018C00040F4804040F400402168CA694CF6FF7340
:1018D0009A431043C861D4E90710014320680268A5
:1018E00022F0C00211430160D4E9030101432068E2
:1018F000826848F2FF339A4311438160D4E90501BD
:1019000008432168CA6822F0FF021043C86001E062
:101910000EE016E02068016841F0010101602564D5
:10192000202084F83D00256384F83E50002070BDDF
:1019300001EB4106431EB3FBF6F35B1CB3E701204A
:10194000C2E701EB4101401EB0FBF1F0401CC0F3C7
:101950000B00B7E7A086010080841E0000093D004F
:1019600040420F002DE9F84F1F4690468A46044634
:10197000DDF82890FFF72CFF054694F83D0020285D
:101980007FD11923012240492046009501F092FBA6
:10199000002876D194F83C00012872D0012084F808
:1019A0003C0020680168C90703D1016841F00101CA
:1019B00001602068016821F400610160212084F841
:1019C0003D00102084F83E0000262664C4F82480E0
:1019D0006785608D20852D48E0622B464A4651463A
:1019E000204601F01BFA90B9206841698069009097
:1019F00036E02A464946204601F03AFC50B1206CB8
:101A0000042804D12068016841F4007101600120BC
:101A1000BDE8F88F606A216800780861606A401C40
:101A20006062618D491E6185218D491E89B22185C3
:101A300022685369DB435B070BD451B10078106116
:101A4000606A401C6062608D401E6085208D401E73
:101A500020852A464946204601F000FB0028CED1C9
:101A6000208D0028C5D154F83D0B016841F4007168
:101A70000160202004F81E09E67766770020C7E79A
:101A8000FFE70220C4E70000020010000000FFFF93
:101A90002DE9FF4F83B09A46DDE91187934604464E
:101AA000DDF84090FFF794FE054694F83D002028AD
:101AB00070D11923012274492046009501F0FAFAE9
:101AC0000028F5D194F83C00012863D0012084F867
:101AD0003C0020680168C90703D1016841F0010199
:101AE00001602068016821F400610160222084F80F
:101AF0003D00402084F83E0000262664C4F824906F
:101B0000A4F82A80608D20856048E062CDE90075E8
:101B100053465A462046049901F0CEF9002879D15F
:101B2000208DD0B1012821D00228206824D041691D
:101B300080690090208D032866D801282BD0544955
:101B400002283B464FF00002009557D088462046B9
:101B500001F0B0FA00285DD13AE02068416981695E
:101B60000091016841F4007101607DE02068016826
:101B700021F480610160F0E7016821F48061016077
:101B80002068016841F40061016020684169806952
:101B9000009069E075E02A463946204601F030FBA6
:101BA00088BB54E02068016841F40071016020683E
:101BB0000069616A0870606A401C6062218D491E7C
:101BC0002185618D491E618521680969017042E0A6
:101BD0002068016821F48061016020680069616A01
:101BE0000870606A401C6062208D401E2085608DF8
:101BF000401E60853B46002241460095204601F08C
:101C000059FA00B9CEE705E02A463946204601F0E8
:101C1000F7FA18B1012007B0BDE8F08F206800691D
:101C2000616A0870606A401C6062208D401E81B24B
:101C30002185608D401E608520684269D24352072D
:101C400012D4032903D1016821F480610160206866
:101C50000069616A0870606A401C6062208D401EE5
:101C60002085608D401E6085208D00287FF462AF46
:101C7000202084F83D0084F83E6084F83C60002019
:101C8000C9E70220C7E70000020010000000FFFFC4
:101C9000040001002DE9FF4F83B09A46DDE911975A
:101CA00093460446DDF84080FFF792FD054694F820
:101CB0003D0020287FD1192301224049204600956C
:101CC00001F0F8F9002876D194F83C00012872D090
:101CD000012084F83C0020680168C90703D101682D
:101CE00041F0010101602068016821F40061016098
:101CF000212084F83D00402084F83E000026266420
:101D0000C4F82480A4F82A90608D20852C48E062D5
:101D1000CDE9007553465A462046049901F04AF928
:101D200070B930E02A463946204601F0A1FA58B190
:101D3000206C042804D12068016841F4007101601E
:101D4000012007B0BDE8F08F606A21680078086163
:101D5000606A401C6062218D491E89B22185628DB6
:101D6000521E628522685369DB435B070BD469B15D
:101D700000781061606A401C6062208D401E2085E2
:101D8000608D401E6085208D0028CBD12A463946C3
:101D9000204601F063F90028CAD154F83D0B0168D0
:101DA00041F400710160202004F81E09E67766778F
:101DB0000020C6E7FFE70220C3E700000200100092
:101DC0000000FFFF10B586B0044614216846FEF7F8
:101DD00074FA13492068884220D112480021026811
:101DE00042F002020260006800F002000590C0208C
:101DF00000901220CDE901010320039004200490FB
:101E000069460948FFF7E6FB06481030016841F4CF
:101E100000110160006800F40010059006B010BDCC
:101E200000540040303802400004024002488168FB
:101E30000278114481607047000000200B4810B503
:101E4000016841F400710160016841F48061016042
:101E5000016841F480710160032000F06FF80F20E9
:101E600000F006F800F024F8002010BD003C02400D
:101E700070B50D4D04464FF47A712878B1FBF0F03F
:101E80000A490968B1FBF0F000F00AFB48B9102CD0
:101E900007D200222146501E00F030F800206C606E
:101EA00070BD012070BD0000000000200C0000206B
:101EB0000A4808B5016841F480410160006800F4F7
:101EC000804000900548001F016841F0805101608A
:101ED000006800F08050009008BD000044380240C7
:101EE000002809DB00F01F02012191404009800019
:101EF00000F1E020C0F8001170470000F0B40E4B74
:101F00001B680C46C3F30223C3F10705042D00D957
:101F10000425191D072901D2002300E0DB1E01263C
:101F200006FA05F1491E214099409E40761E164052
:101F30003143F0BC01F068BE0CED00E0064900F052
:101F4000070208684FF6FF03184040EA0220034AE0
:101F500010430860704700000CED00E00000FA0537
:101F60002DE9F0470E46050065D0DFF81481D8F85A
:101F70000000F7B200F00700B04207D288F8007006
:101F8000D8F8000000F00700B04254D128683D4C5A
:101F9000810712D5400703D5206840F4E050206047
:101FA0002878000703D5206840F46040206020684E
:101FB000A96820F0F000084320602878C0072DD0E1
:101FC000304968680839012812D0022813D0032844
:101FD00011D00968890700292DDA216821F0030151
:101FE00001432160FFF7F4FB814641F2883A0EE09D
:101FF00009688903EFE709688901ECE7FFF7E8FB67
:10200000A0EB0901514502D90320BDE8F087206803
:10201000696800F00C00B0EB810FEFD1D8F8001028
:10202000404601F00701B14207D90770006800F08F
:102030000700B04201D00120E7E72878400705D526
:102040002068E96820F4E050084320602878000701
:1020500006D52068296920F4604040EAC10020606C
:1020600000F038F82168084AC1F30311515CC840F8
:102070000649086006480068FFF7FAFE0020C4E73A
:10208000003C024008380240947300080C00002015
:10209000040000200448054900680968044AC1F3A7
:1020A0008221515CC84070470C0000200838024073
:1020B000A47300080448054900680968044AC1F38C
:1020C0004231515CC84070470C0000200838024083
:1020D000A4730008154810B5006810F00C021448ED
:1020E00013D04110042A0FD0082A0ED10F4C241F00
:1020F0002268236802F03F025B0207D52068C0F324
:102100008810A0FB010106E0084610BD2168C1F35C
:102110008811A1FB00010023FEF754F82168C1F3E8
:102120000141491C4900B0FBF1F010BD08380240E4
:102130000024F4002DE9F84F04006ED02078DFF879
:102140004C93C007A9F104054AD009F104000168C5
:10215000C1F38101012908D00068C0F38100022881
:102160000AD1D9F80000400206D52868800337D587
:1021700060680028E1D033E06068B0F5803F10D09F
:10218000B0F5A02F286810D020F48030286028688F
:1021900020F4802028606068A8B1FFF719FB06468C
:1021A0000DE0286840F48030F4E740F48020286097
:1021B000F7E700BFFFF70CFB801B642873D8286883
:1021C0008003F7D50CE0FFF703FB064605E000BFF0
:1021D000FFF7FEFA801B6428F0D828688003F7D444
:1021E0002078DFF8AC8280074FF0000A3ED5A74880
:1021F000001D016811F00C0F08D00068C0F38100C9
:1022000002280BD1D9F80000400207D428688007C3
:1022100016D5E068012800D112E033E1E068B8B1DA
:102220000120C8F80000FFF7D3FA064605E000BF1A
:10223000FFF7CEFA801B0228C0D828688007F7D5A0
:102240002868216920F0F80040EAC10028600DE00C
:10225000C8F800A0FFF7BCFA064604E0FFF7B8FA9A
:10226000801B02281FD828688007F7D42078000731
:1022700022D5864F87486169703771B101210160AD
:10228000FFF7A6FA064604E0FFF7A2FA801B022831
:1022900009D838688007F7D50EE0C0F800A0FFF72E
:1022A00097FA064605E082E0FFF792FA801B0228C3
:1022B0007DD838688007F7D42078400768D5DFF8E4
:1022C000CCB100270BF13C0BDBF80000C0000BD4B5
:1022D000DBF8001041F08051CBF80010DBF8000073
:1022E000012700F0805000906B4E3068C00510D47C
:1022F000306840F480703060FFF76AFA009005E0C3
:10230000FFF766FA0099401A022850D83068C005D5
:10231000F6D55E4EA0686C3601280FD005283068CF
:1023200010D020F001003060306820F004003060F0
:10233000A068B8B1FFF74CFA00900FE0306840F0A9
:102340000100F4E740F004003060F7E7FFF740FADF
:102350000099411A41F28830814266D8306880077E
:10236000F4D50EE0FFF734FA009007E0FFF730FAFB
:102370000099411A41F28830814256D8306880076E
:10238000F4D42FB1DBF8001021F08051CBF800100D
:10239000A069C8B33D49091D0968C1F3810102293B
:1023A0004AD00228504607D0C8F8600000E03CE060
:1023B000FFF70EFA04463BE04746C8F86000FFF717
:1023C00007FA064605E000BFFFF702FA801B022865
:1023D0002BD828688001F7D4D4E907010843A16A03
:1023E0002E4A490802EB0141626A41EA8211084320
:1023F00094F82C1040EA0161C9F8001001203866F9
:10240000FFF7E6F9044606E03EE000BFFFF7E0F91B
:10241000001B022809D828688001F7D534E000BFE6
:10242000FFF7D6F9001B022802D90320BDE8F88F78
:1024300028688001F4D427E00128F7D0D9F80000FB
:10244000E26900F4800191421CD1226A00F03F0150
:10245000914217D147F6C071626A0140B1EB821F09
:1024600010D1A26A4FF0FF3300F4403103EB520267
:10247000B1EB024F06D194F82C1000F07060B0EB75
:10248000016F01D00120D1E70020CFE704380240DE
:1024900000004742800E4742007000400000FFFFEE
:1024A00010B5401EB0F1807F01D3012010BD4FF068
:1024B000E02460610F21601701F0A6FB0020A061FD
:1024C00007202061002010BD7047704770B590F85C
:1024D0003C20012A32D0012480F83C40022280F8BE
:1024E0003D2003685A689D6822F070060A683243EE
:1024F0005A60134B02689A4214D0B2F1804F11D047
:10250000104B9A420ED0104B9A420BD00F4B9A426E
:1025100008D00F4B9A4205D00E4B9A4202D00E4B78
:102520009A4204D1496825F080031943916080F8EC
:102530003D40002180F83C10084670BD022070BD6F
:10254000000001400004004000080040000C004072
:1025500000040140004001400018004010B5040094
:1025600003D094F83D0010B107E0012010BD002019
:1025700084F83C00204600F01FF8022084F83D005B
:10258000211D206801F044F8012084F8460084F8F9
:102590003E0084F83F0084F8400084F8410084F84D
:1025A000420084F8430084F8440084F8450084F82D
:1025B0003D00002010BD000008B50068B0F1804F5C
:1025C00012D10A48016841F001010160006800224F
:1025D00000F00100009011461C20FFF78FFCBDE8C1
:1025E00008401C20FFF77CBC08BD000040380240BA
:1025F00090F83D10012901D001207047022180F898
:102600003D1000681149884214D0B0F1804F11D0BC
:102610000F4988420ED00F4988420BD00E4988429C
:1026200008D00E49884205D00D49884202D00D4994
:10263000884204D1816801F00701062903D00168AE
:1026400041F00101016000207047000000000140DE
:102650000004004000080040000C0040000401405D
:10266000004001400018004001680A6A41F211135D
:102670001A4207D10A6A9B101A4203D10A6822F053
:1026800001020A60012180F83D100020704770B5FA
:10269000044690F83C000025012817D0012684F854
:1026A0003C60022084F83D002068826822F07702B6
:1026B00022F47F4282600868502838D00DDC202840
:1026C0004FD005DC90B3102811D14AE0022070BD34
:1026D000302846D040280AD13BE060282FD070280F
:1026E0000DD0B0F5805F03D0B0F5005F12D00125AA
:1026F00084F83D60002084F83C00284670BDCB681B
:10270000D1E90121206800F0EBFF2068816841F0E9
:10271000770109E0CB68D1E90121206800F0E0FFF2
:102720002068816841F480418160E1E719E0CA686E
:102730004968206800F0E6FF5021206806E0CA687A
:102740004968206800F0EFFF6021206800F0D2FFA8
:10275000CEE7CA684968206800F0D4FF40212068AD
:10276000F4E7226801461046F0E770472DE9F04192
:1027700004460068C66805694FF00007A90713D52D
:10278000B10711D5F91E0161012020772068806909
:102790008007204602D0FFF7E8FF04E000F07EF853
:1027A000204600F07CF82777680716D5700714D507
:1027B00021686FF00400086102202077206880699A
:1027C00010F4407F204602D0FFF7CFFF04E000F076
:1027D00065F8204600F063F82777280715D53007FD
:1027E00013D521686FF00800086104202077206865
:1027F000C0698007204602D0FFF7B7FF04E000F071
:102800004DF8204600F04BF82777E80616D5F0067D
:1028100014D521686FF01000086108202077206827
:10282000C06910F4407F204602D0FFF79EFF04E00D
:1028300000F034F8204600F032F82777E80708D097
:10284000F00706D021686FF001000861204600F013
:1028500027F8280608D5300606D521686FF08000D5
:1028600008612046FFF730FE680608D5700606D5D9
:1028700021686FF040000861204600F012F8A806B9
:102880000AD5B00608D521686FF0200008612046FF
:10289000BDE8F041FFF719BEBDE8F0817047704711
:1028A0007047704738B5044690F84200202801D0A0
:1028B000022038BD51B14AB101202063002060637D
:1028C000204601F0DDF8216B012901D0012038BD3F
:1028D00021680A684968009121680C3151E8002F8D
:1028E00042F0100241E80023002BF5D138BD000072
:1028F00010B50C460D4A0168914216D100F01EF841
:102900000B49224601F5807004F0DDFB8021084868
:10291000FDF7D3FC802206490648FFF7C3FF0648AF
:102920000068016821F00801016010BD001001403D
:102930008C020020D40100201C02002010B50446A7
:102940000068406994F84110C0F3C010212911D1EA
:1029500080B12068143050E8001F21F0800140E869
:102960000012002AF5D1A06B08B1FEF753FC2046F7
:1029700000F090FF2068406994F84210C0F3801086
:10298000222911D180B12068143050E8001F21F0B5
:10299000400140E80012002AF5D1E06B08B1FEF7D3
:1029A00039FC204600F04FFF002010BD70470000AA
:1029B000F8B5016804460868CA684B6910F00F0F43
:1029C0004FF0000559D003F0010602F49077374329
:1029D00065D0C10705D0D10503D5616C41F0010177
:1029E0006164410705D5D90703D0616C41F002014C
:1029F0006164810705D5D90703D0616C41F00401FA
:102A00006164010707D502F02001314303D0616CF6
:102A100041F008016164616C00293AD0800604D558
:102A2000900602D5204600F043FF20684069616CA3
:102A3000C0F38010090700D460B3204600F003FF04
:102A400020684069400621D52068143050E8001FF6
:102A500021F0400140E80012002AF5D1E06BA8B156
:102A600072490165E06BFEF71EFC002811D0E06B97
:102A7000016D01B0BDE8F040084783060FD593060D
:102A80000DD52046BDE8F84000F012BF2046FFF704
:102A90008DFFF8BD2046FFF789FF6564F8BD266B02
:102AA0002023012E7ED1C6067CD5D6067AD50868AD
:102AB0004868009048694FF0020640064DD5E26B29
:102AC000106840684FF480770004000C3AD0A18D64
:102AD000814237D9E085D069B8422DD020680C30CA
:102AE00050E8001F21F4807140E80012002AF5D15F
:102AF0002068143050E8001F21F0010140E8001266
:102B0000002AF5D12068143050E8001F21F0400160
:102B100040E80012002AF5D184F84230256320688D
:102B20000C3050E8001F21F0100140E80012002A8C
:102B3000F5D1E06BFEF76EFB6663A08DE18D401A68
:102B400081B206E0A18D8142A8D1D069B842A5D159
:102B500066632046FFF7CCFEF8BDA08DE18D401ADC
:102B600081B2E08D0028F7D00029F5D020680C3024
:102B700050E8002F22F4907240E80027002FF5D192
:102B80002068143050E8002F22F0010240E80027AE
:102B9000002FF5D184F84230256320680C3050E8CE
:102BA000002F00E006E022F0100240E80023002B96
:102BB000F3D1CDE705062BD5150629D594F84100AC
:102BC0002128C9D1A068B0F5805F01D12069B0B1DA
:102BD000206A411C2162216800784860E08C401E18
:102BE0000004000CE084B7D12068C16821F08001A6
:102BF000C1602068C16841F04001C160F8BD206A31
:102C00000088C0F308004860206A801C2062E5E765
:102C10004006F3D55006F1D5CA68204622F040029E
:102C2000CA6084F8413000F0DFF8F8BD4B37000887
:102C300070B5040004D094F84100002510B106E0FE
:102C4000012070BD84F84050204600F023F8242075
:102C500084F841002068C16821F40051C160204619
:102C600000F088FE2068016921F49041016120682C
:102C7000416921F02A0141612068C16841F4005195
:102C8000C1606564202084F8410084F842006563D7
:102C9000002070BD70B586B0064614216846FDF769
:102CA0000CFB23493068884240D122480025016846
:102CB00041F010010160006800F0100005901D480F
:102CC0001438016841F0010101600068694600F0B4
:102CD000010005904FF4C06000900220CDE901058D
:102CE00003200390072004901348FEF773FC144C54
:102CF000124820604FF00060C4E901054014C4E9A7
:102D000003506561A561E561256220466562FEF7B5
:102D1000ADFB08B1FEF70EF8F46300221146252042
:102D2000A663FFF7EBF82520FFF7DAF806B070BDD1
:102D3000001001404438024000000240406402405C
:102D40001C020020704770472DE9F843044690F8B4
:102D50004100984616460D46202802D00220BDE8C4
:102D6000F88385B17EB100206064212084F84100A1
:102D7000FEF72EFDA6848146E684A0682027B0F5E4
:102D8000805F02D003E00120E9E7206910B12E4600
:102D900000250EE000260CE08021204600F0C0FE59
:102DA000A8B9C6B116F8010B21684860E08C401E36
:102DB000E084E08C4B464FF00002CDF80080002804
:102DC000EAD14FF04001204600F0AAFE40B184F85D
:102DD00041700320C3E735F8020BC0F30800E3E7B6
:102DE00084F841700020BAE77047FEE701684A693D
:102DF000D24352050FD46FF480624A61002140F83B
:102E0000301F202242738173026942F00402026182
:102E1000017301207047002070470000F8B5044698
:102E2000C06A1E460D461746082807D0012805D05F
:102E300010F5803F02D0206B122804D12068016871
:102E400041F480710160134600224FF001112046C9
:102E5000009600F02FF940B120680068C00502D547
:102E60004FF4007020640320F8BD2069B0F5804F56
:102E70000ED00620216800EAD51040F0F00008616D
:102E800033463A460B49204600F05CF978B902E037
:102E900005F0FE0000E0E8B221680861054933460C
:102EA0003A46891F204600F04DF90028DCD0012069
:102EB000F8BD0000080001002DE9F84F0446006845
:102EC00089460B9D01689846174641F48061016070
:102ED0002068016841F48071016000954FF0011B8A
:102EE0000022594620460A9B00F0E4F84FF4007A8D
:102EF00040B120680068C00501D5C4F840A0032097
:102F0000BDE8F88F216809F0FE0008612B462849CA
:102F100020460A9A00F016F9F0BB206841698069E2
:102F200000902A4620460A9900F0A2F940B1206C90
:102F300004283AD12068016841F40071016034E04E
:102F4000FEB2B8F1010F09D02168380A08612A469B
:102F500020460A9900F08CF90028E8D12068066123
:102F60002A4620460A9900F083F90028DFD120681C
:102F7000016841F4807101600095002259462046A5
:102F80000A9B00F097F80028B3D1216809F0FF00F0
:102F900040F00100086100E007E02B4604492046AC
:102FA0000A9A00F0CFF80028AAD00120A8E7000074
:102FB000020001002DE9F843044600680D46DDE9F2
:102FC000089701689846164641F4807101604B46A7
:102FD00000224FF001112046009700F06BF848B135
:102FE00020680068C00502D54FF4007020640320FB
:102FF000BDE8F883216805F0FE0008613B464A46BB
:103000001549204600F09EF888B92068416980691A
:1030100000903A464946204600F02AF948B1206C13
:10302000042804D12068016841F400710160012086
:10303000DEE7F5B2B8F1010F09D02168300A086166
:103040003A464946204600F013F90028E7D12068A7
:1030500005610020CCE700000200010070B51646B3
:103060000D4604461EE02046FFF7C0FE08B10120D1
:1030700070BD681C16D0FEF7ABFB801BA84200D8C1
:1030800085B920684069C04340070BD5002044F84B
:10309000300F20216173A073216941F0200121616B
:1030A0002073E4E720684069C0434007DBD4002078
:1030B00070BD00002DE9F047984617460D460446BE
:1030C000C1F30746DDF820902AE000BFB8F1FF3FCA
:1030D00026D0FEF77DFBA0EB0901414502D8B8F1EF
:1030E000000F1DD12068012E16D0806925EA00004E
:1030F0000004000C12D00020B84211D1002044F886
:10310000300F20216173A073216941F020012161FA
:1031100020730120BDE8F0874069E7E70120EBE775
:103120002068012E0AD0806925EA00000004000C06
:1031300006D00020B842C9D00020EBE74069F3E791
:103140000120F7E72DE9F047984616460D4604465C
:103150004FF000094FF0200AC1F3074723E0206831
:103160004069C043400515D42068016841F40071EE
:10317000016021686FF480604861C4F8309084F881
:103180003DA084F83E90216C41F00401216484F854
:103190003C9021E0701C06D0FEF71AFBA0EB080063
:1031A000B04203D816B1012F1FD021E02068012FB3
:1031B00015D0806925EA00000004000C18D000BF7B
:1031C00044F8309F84F80DA084F80E90216941F0F6
:1031D0002001216184F80C900120BDE8F08740694E
:1031E00025EA00000004000CEAD12068406901E0F3
:1031F0002068806925EA00000004000CAFD1ECE7EC
:103200002DE9F041002590460E460446202728E08F
:103210004069C043C0060CD454F8301B6FF0100056
:10322000486144F810596777A577206A20622577AE
:1032300014E0FEF7CDFAA0EB0800B04200D886B942
:1032400020684069C04340060BD544F8305F67737F
:10325000A573206940F02000206125730120BDE89E
:10326000F08120684169C9434906D1D40020F6E7BE
:1032700070B516460D4604461EE02046FFF7B6FD23
:1032800008B1012070BD681C16D0FEF7A1FA801BA2
:10329000A84200D885B920684069C04300060BD514
:1032A000002044F8300F20216173A073216941F0A0
:1032B000200121612073E4E720684069C0430006D3
:1032C000DBD4002070BD10B500216B2000F012F897
:1032D0000721192000F00EF806211A2000F00AF844
:1032E00018211B2000F006F80121BDE810401C2029
:1032F000AFF300801CB502238DF804004FF0FF30BF
:103300008DF80510009001AAD0210348FEF72AFB92
:10331000002800D001201CBD380100201FB500216D
:103320001548009101910291124A039102604FF4F5
:103330008032C0E9012101240161047680F8201067
:103340000E4AC0E90A21C461C16080F8304044617E
:10335000FDF734FE08B1FDF7EDFC07200094CDE940
:10336000014069460448FDF7E9FC002801D0FDF75B
:10337000E1FC1FBD00200140900000200100000F73
:103380000D4808B5016841F4800101600068002221
:1033900000F48000009011463820FEF7AFFD382081
:1033A000FEF79EFD002211463A20FEF7A7FDBDE87C
:1033B00008403A20FEF794BD303802402DE9F04134
:1033C00086B014216846FCF778FF22480024016883
:1033D00041F004010160016801F0040105910168F8
:1033E00041F080010160016801F0800105910168F0
:1033F00041F001010160016801F0010105910168DE
:1034000041F0020101600068134F00F002000590D6
:10341000002201213846FEF7D5F90122DFF83C8071
:10342000160231464046FEF7CDF901250095CDE95B
:103430000154694638460394FEF7CCF80220CDE9E2
:103440000240CDE9006569464046FEF7C3F806B084
:10345000BDE8F08130380240000802400000024020
:103460000D4810B50B4901600C49416000214FF433
:1034700080428160C0E9031241618161C1610162E2
:10348000FEF7ACF9002803D0BDE81040FDF752BCB0
:1034900010BD00000054004038010020A08601004B
:1034A00010B586B000241648009401940294039449
:1034B00004944FF08041059401605321C0E9011448
:1034C0004FF6FF71C0E903148461FFF747F808B1B4
:1034D000FDF730FC4FF48050009069460848FFF734
:1034E000D6F808B1FDF726FC049404A90448059415
:1034F000FEF7ECFF002801D0FDF71CFC06B010BD64
:103500008C010020114810B50F4901604FF4E131E2
:103510004160002181600C22C160C0E90412816118
:10352000C161FFF785FB08B1FDF704FC8022084963
:103530000648FFF7B7F9054848300068016821F0F0
:103540000801016010BD000000100140D4010020FE
:103550008C020020FEE7FEE770477047FEF766BC6E
:1035600030B593B030216846FCF7A7FE14210CA8B3
:10357000FCF7A3FE1D480025016841F08051016061
:10358000006800F0805011901948016841F48041B2
:1035900001600068022400F4804011900120009036
:1035A000000401908001CDE9064008AA0420A8216A
:1035B00082E813000B906846FEF7BCFD08B172B6B6
:1035C000FEE70CA90F2081E831004FF4A0500F90C6
:1035D0004FF48050109005210CA8FEF7C1FC002884
:1035E00001D072B6FEE713B030BD00004038024093
:1035F000007000400248016841F4700101607047AA
:1036000088ED00E00148FFF7B1B800008C01002010
:10361000F0B50268274B284D284E294F294C4FF012
:10362000804C984209D0604507D0A84205D0B042EE
:1036300003D0B84201D0A04204D122F0700E4A68F3
:1036400042EA0E0298421BD0604519D0A84217D01A
:10365000B04215D0B84213D0A04211D01A4DA842A2
:103660000ED01A4DA8420BD0194DA84208D0194DC2
:10367000A84205D0184DA84202D0184DA84203D147
:1036800022F44075CA682A434D6922F080022A4319
:103690008D68C5620D688562984201D0A04201D153
:1036A00009690163016841F0040101600121416180
:1036B0000260F0BD0000014000040040000800402E
:1036C000000C004000040140004001400044014063
:1036D0000048014000180040001C0040002000404D
:1036E00010B5846842EA032224F47F440A4322434B
:1036F000826010BD826822F070020A4342F0070126
:103700008160704710B5036A046A24F00104046202
:10371000846924F0F00444EA021423F00A020A4304
:103720008461026210BD10B5036A046A24F01004BB
:103730000462846923F0A00324F4704444EA023252
:1037400043EA01118261016210BD10B5806B002156
:10375000C185FFF72BF910BD70B5846B20684069F7
:1037600094F84110C0F3C0100025212904D118B1EC
:10377000E584204600F08EF82068406994F84210F5
:10378000C0F38010222904D118B1E585204600F04D
:103790005AF8606C40F0100060642046FFF706F9AC
:1037A00070BD10B50146806B096809684FF00002D2
:1037B000C9052ED4C28501680C3151E8003F23F4BD
:1037C000807341E80034002CF5D10168143151E8D0
:1037D000003F23F0010341E80034002CF5D10168DB
:1037E000143151E8003F23F0400341E80034002C3D
:1037F000F5D1202180F84210016B012909D101681F
:103800000C3151E8003F23F0100341E80034002C54
:10381000F5D14263016B012902D0FFF793FA10BD85
:10382000818DFFF765F810BD10B5806B01214163F4
:10383000016B012902D0FFF786FA10BD818D49087E
:10384000FFF756F810BD01680C3151E8002F22F443
:10385000907241E80023002BF5D10168143151E842
:10386000002F22F0010241E80023002BF5D1016B6B
:10387000012909D101680C3151E8002F22F0100212
:1038800041E80023002BF5D1202180F842100021CF
:103890000163704701680C3151E8002F22F0C0022B
:1038A00041E80023002BF5D1202180F8411070471A
:1038B00008B590F84210222901D0022008BD826884
:1038C0004FF480539A4201D1016921B1816A9A4231
:1038D0001BD04AB10AE00268816A5268C2F308024A
:1038E0000A80816A891C08E0026972B10268526824
:1038F00002F07F020A70816A491C8162C18D491EF3
:103900000904090CC18503D01BE002685268F1E785
:103910000168CA6822F02002CA600168CA6822F4FD
:103920008072CA6001684A6922F001024A6120215E
:1039300080F8421000214163026B012A03D0FFF797
:1039400001FA002008BD016301680C3151E8002F25
:1039500022F0100241E80023002BF5D101680A682B
:10396000D20602D50A6849680091818DFEF7C0FF32
:10397000E7E7000070B5044600680169E26821F4D9
:103980004051114301612169A068E26908436169FE
:10399000114308432168CA6849F20C639A43024301
:1039A000CA6020684169A26921F4407111434161F4
:1039B00031492068884202D03049884202D1FEF75E
:1039C00079FB01E0FEF766FBE2690023192164251B
:1039D0003226B2F5004F626828D0A0FB0101930F98
:1039E0009200FCF7EFFB0146B0FBF5F06FF0180218
:1039F000504301EB800006EB0010B0FBF5F000F047
:103A0000F002B1FBF5F002EB0012B1FBF5F06FF044
:103A10001803584301EB800006EB0010B0FBF5F0F3
:103A200000F00F0021681044886070BDA0FB010108
:103A300092185B41FCF7C6FB0146B0FBF5F00201B2
:103A4000B1FBF5F06FF01803584301EB800006EB73
:103A5000C000B0FBF5F000F0F80002EB4002B1FB53
:103A6000F5F0584301EB800006EBC000B0FBF5F029
:103A700000F00700D6E700000010014000140140EC
:103A800038B5816204468285002013466064222294
:103A900084F84220E56B1F4AEA63E56B1E4A2A64FC
:103AA000E56B1E4AEA64E26B10650A462168E06B2A
:103AB000091DFDF745FD30B110206064202084F819
:103AC0004200012038BD20680168406800902069EC
:103AD00048B120680C3050E8001F41F4807140E884
:103AE0000012002AF5D12068143050E8001F41F080
:103AF000010140E80012002AF5D12068143050E896
:103B0000001F41F0400140E80012002AF5D10020DA
:103B100038BD0000A33700082938000859370008CD
:103B20002DE9F843984617460D460446089E24E0C2
:103B3000701C22D0FDF74CFEA0EB0800B0421AD852
:103B4000CEB12068C168490717D5802D15D0402D0A
:103B500013D00168C94309070FD4016800254068E4
:103B600000902046FFF76FFE0820606484F8405004
:103B70000120BDE8F8830320FBE72068006835EAF0
:103B8000000004D00020B842D2D00020F1E701208C
:103B9000F9E700000148FEF70BBF0000D401002048
:103BA000FEE700007CB50C001D461646014601D01C
:103BB000601E00E00020CDE90010064B6A46294651
:103BC000304600F0D5FD002C02D0009A0021117083
:103BD0007CBD0000774E000803B4019841000098B6
:103BE00050EAC12018BF04204A0D18BF40F0010060
:103BF00040F2FF72B2EB515F08BF40F002000128B3
:103C000008BF052002B070470907090E002804DB31
:103C100000F1E02080F80014704700F00F0000F180
:103C2000E02080F8141D704770B5C1482DED020BDF
:103C30002DED0E8B82B0119D25F000449FEDBEDB73
:103C40009FEDBFEB84423EDBA4F140511098A1F1FF
:103C50007F6108430FD0BC48844202DC28D1109811
:103C600030B39DED100B02B0BDEC0E8B02B0BDE881
:103C7000704000F071BC9DED100B53EC1D2B51EC0E
:103C8000100BFCF7D9FB9DED100B41EC180B53EC1E
:103C90001E2B51EC100BFCF7CFFB53EC182BFCF751
:103CA00024FB41EC100B02B0BDEC0E8B02B070BDDA
:103CB000012000F095FC02B0BDEC0E8B02B0BDE817
:103CC000704000F05DBCA1489FEDA18B844256DAA4
:103CD0009DED100BB4F1795F0ADA51EC100BFFF790
:103CE0007BFF042808BF00F05BFC9DED100BDAE7BA
:103CF00053EC102B51EC100BFCF79EFB41EC190B15
:103D000095480621B0EE490AF0EE690A784400F0C1
:103D1000A7FB53EC192B51EC100BFCF78DFB41EC7E
:103D20001A0B8E48B0EE490AF0EE690A0421784475
:103D300000F096FB53EC192B51EC100BFCF77CFBBD
:103D400053EC182BFCF7D1FA41EC100B51EC1A0B89
:103D500053EC102BFCF7E2FBCDE900019DED000BCD
:103D600053EC102B9DED100B51EC100BFCF764FB8A
:103D70009DED101B53EC112BFCF7B7FAD2E09DED33
:103D8000100B51EC100B01F09BFD53EC182BFCF7C2
:103D900050FB9FED730BCDE9000153EC102B9DED13
:103DA000000B51EC100BFCF747FB41EC190B6E4874
:103DB0000621B0EE490AF0EE690A784400F050FBA3
:103DC00053EC192B51EC100BFCF736FB41EC1B0BA1
:103DD0006648B0EE490AF0EE690A0421784400F022
:103DE0003FFB53EC192B51EC100BFCF725FB53EC6C
:103DF000182BFCF77AFA41EC1C0B51EC190B03F071
:103E00005FFA41EC180B5A489FED5BABA04222DCF5
:103E100053EC1C2B51EC1B0BFCF780FBCDE9000194
:103E20009DED000B51EC180B53EC102BFCF704FB31
:103E300053EC182BFCF759FA53EC1A2BFCF7FCFA4D
:103E400053EC1D2BFCF7F2FA53EC1E2BFCF7F1FAA6
:103E500041EC100B5FE08DED008B002000909DED9C
:103E6000000B51EC180B53EC102BFCF73EFA9DEDB8
:103E7000000B41EC1E0B53EC102B51EC100BFCF71C
:103E8000DBFA53EC192BFCF7D4FA53EC1E2BFCF79E
:103E900045FB41EC190B53EC1C2B51EC1B0BFCF7B5
:103EA0003DFB41EC1B0B53EC1A2B51EC190BFCF7AF
:103EB000C3FA53EC1D2BFCF7BCFA41EC190B53EC85
:103EC0001A2B51EC180BFCF7B7FA53EC1B2BFCF731
:103ED000B3FA53EC192BFCF7A9FA9DED000B41EC5A
:103EE000180B53EC1A2B51EC100BFCF7A5FA9FEDB5
:103EF000249B53EC192BFCF79CFA41EC100B51EC72
:103F0000180B53EC102BFCF791FA53EC192BFCF720
:103F100090FA41EC100B002D3FF7C5AE51EC100BA1
:103F200081F0004141EC100BBDE6000000000000F4
:103F30000000F03F00000000075C143326A6913C0F
:103F4000182D4454FB21F93F0000F07F0000E03FB2
:103F5000000000000000F03FE8420000F6420000D0
:103F6000000000000000E03F3A420000484200002C
:103F70003333EF3F0000000000000000000000406D
:103F8000182D4454FB21E93F70B59B482DED020BE1
:103F90002DED068B079D25F00044A04218DC9748C4
:103FA000844202DC0AD1069840B19DED060BBDECBF
:103FB000068B02B0BDE8704000F0CEBA002DCCBF39
:103FC0009FED8F0B9FED900BBDEC068B02B070BD8B
:103FD0008F48A04215DD8F48A042D8BF4FF0FF3474
:103FE00058DD9DED060B51EC100BFFF7F5FD042895
:103FF00008BF00F0D5FA9DED060BBDEC068B02B0B4
:1040000070BD9DED060B51EC100B01F059FCCDE994
:10401000060181489FED828BA0423CDD8248A04290
:104020001FDD00249FED82AB9DED060B53EC1A2B98
:1040300051EC100BFCF759F99DED060B41EC190BF7
:1040400053EC1A2B51EC100BFCF7F6F953EC182B30
:10405000FCF7ECF953EC192BFCF760FACDE90601FB
:1040600049E09DED060B012453EC182B51EC100B8D
:10407000FCF73BF99DED060B41EC190B53EC182BAB
:1040800051EC100BFCF7D2F953EC192BFCF746FA64
:10409000CDE906012FE06848A0421FDD02249FED14
:1040A000689B9DED060B53EC192B51EC100BFCF7A4
:1040B000C3F953EC182BFCF718F99DED060B41ECF6
:1040C000180B53EC192B51EC100BFCF7AFF953EC18
:1040D000182BFCF723FACDE906010CE09DED060B49
:1040E000032453EC102B9FED580B51EC100BFCF7F5
:1040F00015FACDE906019DED060B53EC102B51ECA2
:10410000100BFCF799F941EC180B53EC182BFCF74A
:1041100093F941EC190B4E480621B0EE490AF0EE36
:10412000690A784400F09CF953EC182B51EC100B01
:10413000FCF782F941EC180B4648B0EE490AF0EE64
:10414000690A0521784400F08BF953EC192B51ECE6
:10415000100BFCF771F941EC100B51EC180B53EC00
:10416000102B002C0EDAFCF7C0F89DED061B53EC6B
:10417000112BFCF761F99DED061B53EC112BFCF79D
:1041800058F935E0FCF7B1F89DED061B53EC112B07
:10419000FCF752F941EC100B2F48784400EBC400B7
:1041A00090ED001B51EC100B53EC112BFCF73EF97A
:1041B0009DED061B53EC112BFCF738F941EC100B6D
:1041C0002648784400EBC40090ED001B51EC100B26
:1041D00053EC112BFCF72DF941EC100B002DA2BF75
:1041E000BDEC068B02B070BD51EC100B81F00041AC
:1041F00041EC100B01E70000000010440000F07FCC
:10420000182D4454FB21F93F182D4454FB21F9BFCC
:104210000000DC3F0000203E0000F33F00000000F3
:10422000000000000000F03F0000E63F000000003A
:10423000000000000000004000800340000000007B
:10424000000000000000F83F000000000000F0BF88
:104250008A3F0000403F0000CA3E0000823E00004E
:1042600070B56F4E2DED040B2DED048B82B0DDF893
:1042700024C0DDE907235C422CF000411C4341EAE5
:10428000D474069D22F00040B44205D86C422C4301
:1042900040EAD474B4420BD99DED081B9DED060B8A
:1042A00002B0BDEC048B04B0BDE8704000F05EB914
:1042B000ACF14054A4F17F641C430BD0022404EA07
:1042C000AC7444EAD27405439FED578B9FED582B95
:1042D00007D015E09DED060B51EC100B00F01EFE13
:1042E00042E0002C11BF012C9DED060B02B0BDEC8D
:1042F000048B04BF04B070BD022C38D0032C3BD01B
:104300000B439FED4D1B9FED4E0B0AD0B14218D1D0
:10431000B04209D121F0804120F0804009910790FE
:104320000FE0002A15DA10E0474B7B44002C08BF51
:1043300093ED000B0DD0012C10D0022C17D0032CC4
:104340001AD0B0421DD1002A03DAB0EE410AF0EED5
:10435000610A02B0BDEC048B04B070BD93ED000B9C
:1043600051EC100B81F0004141EC100BF1E7B0EE85
:10437000480AF0EE680AECE7B0EE420AF0EE620A94
:10438000E7E7401A00159FED329B3C28C8BF8DED32
:10439000000B17DCBCF1000FBCBF10F13C0F8DED22
:1043A000009B0FDB9DED080B53EC102B9DED060BD6
:1043B00051EC100BFCF7B2F801F082FA00F0AEFD00
:1043C000CDE90001B4B1012C10D0022C9FED220BDD
:1043D00053EC102B9DED000B51EC100B19D0FCF79A
:1043E00025F853EC182BFCF721F8BDE7019880F075
:1043F000004001909DED000B53EC192B51EC100B7C
:10440000FCF76EFA04BF022000F0EAF89DED000B05
:104410009FE7FCF70BF853EC182BFCF70AF8A3E71F
:104420000000F07F00000000182D4454FB210940DB
:10443000182D4454FB2109C0182D4454FB21F9BF09
:10444000182D4454FB21F93FB23D0000000000004C
:104450000000000000000000075C143326A6A13C09
:1044600070B504462DED028B4D1E00EBC500B0EE7D
:10447000408AF0EE608A90ED000B35F0060017D010
:1044800053EC182B51EC100BFBF7D6FF41EC100B43
:104490006D1E04EBC50090ED001B51EC100B53ECAE
:1044A000112BFBF722FF41EC100B35F00600E7D192
:1044B000022D36D0042D1CD0062D1CBFBDEC028B66
:1044C00070BD53EC182B51EC100BFBF7B5FF94EDBE
:1044D0000A1B53EC112BFBF708FF53EC182BFBF7CF
:1044E000ABFF94ED081B53EC112BFBF7FEFE41ECE8
:1044F000100B53EC182B51EC100BFBF79DFF94EDB8
:10450000061B53EC112BFBF7F0FE53EC182BFBF7BB
:1045100093FF94ED040B53EC102BFBF7E6FE41ECFC
:10452000100B53EC182B51EC100BFBF785FF94ED9F
:10453000021B53EC112BFBF7D8FE53EC182BFBF7A7
:104540007BFF94ED001B53EC112BFBF7CEFEBDEC73
:10455000028B41EC100B70BD10B553EC102B51ECDD
:10456000100BFBF7C2FE41EC100B10BD10B553EC65
:10457000112B51EC100BFBF7B8FE41EC100B10BDEA
:104580009FED050B10B553EC102B51EC100BFBF706
:10459000C5FF41EC100B10BD000000000000000042
:1045A0009FED050B10B553EC102B51EC100BFBF7E6
:1045B00043FF41EC100B10BD000000000000001094
:1045C00002E008C8121F08C1002AFAD170477047DC
:1045D000002001E001C1121F002AFBD1704700003A
:1045E00001490860704700008C0000202DE9FF5F42
:1045F00082B00021DDE90430020DDDF840B0034354
:1046000018D044F61050A2F2FF324243151411980C
:1046100001281FD0A5EB0B00401C5FEA000A4FF0F9
:1046200000064E4FDFF83891B046504615D5CAF116
:10463000000413E0119801244AA3012801D16FEA74
:104640000B010298119AC0E90031C0E9024206B09C
:10465000BDE8F09FCBF10000DFE704460021404AAF
:10466000491842EB0450CDE9001012E0E00707D0F2
:1046700032463B4640464946FBF7DEFE80468946C9
:1046800032463B4610461946FBF7D6FE06460F4615
:104690006410002CEAD1DDE90401DDE90023BAF160
:1046A000000F06DAFBF7C8FE42464B46FBF7C4FE96
:1046B00005E0FBF733FF42464B46FBF72FFF04466E
:1046C0000E460022284BFCF723F903D84FF0FF30A9
:1046D000014607E00022254B20463146FBF705FE48
:1046E000FCF7E6F8102409E0002C0ADB0A2200237C
:1046F000FBF768FD039B30321A55641E50EA010235
:10470000F2D1641C039AC4F111031444119A012AD2
:1047100003D0012208430DD10AE0084304D0002051
:104720004FF0110B119072E7A3EB0B056D1E0DE01E
:104730005B4504DD4FF0000205F1010504E003DAFA
:104740004FF00002A5F10105002AECD00298119962
:10475000C0E90231C0E9004579E7000000001440DB
:104760000000F03F300000000000F0430000E03F98
:104770002DE9FF4F95B09A46884606460025EEE1A2
:10478000252877D100242746F94A0121039400E027
:10479000044316F8013F203B01FA03F01042F7D121
:1047A00030782A2811D06FF02F033078A0F1300232
:1047B000092A16D8039A44F0020402EB820203EBA2
:1047C00042021044761C0390EFE758F8042B039242
:1047D000002A03DA504244F40054039044F00204E7
:1047E000761C30782E2816D116F8010F44F00404F8
:1047F0002A280DD06FF02F023078A0F13003092B5A
:1048000009D807EB870302EB4303C718761CF3E7CD
:1048100058F8047B761C30786C280FD006DC4C28C6
:1048200017D068280DD06A2814D104E0742810D05D
:104830007A280FD10DE044F400140AE044F4801407
:1048400001E044F440147278824202D104F58014ED
:10485000761C761C307866280BD013DC582877D06D
:1048600009DC002875D04528F6D04628F4D0472822
:104870001AD193E118E0632835D0642879D06528EF
:1048800012D18BE1702873D008DC6728F1D0692839
:104890006FD06E280DD06F2806D1ACE073282CD0D5
:1048A000752874D0782853D05246179990476D1CBC
:1048B00054E1C4F30250022809D003280DD0D8F8DF
:1048C000001004280DD00D6008F1040846E1D8F866
:1048D0000010EA17C1E90052F6E7D8F800100D8081
:1048E000F2E70D70F0E718F8041B8DF800100020B7
:1048F0008DF80100EB46012003E058F804BB4FF0AF
:10490000FF3061074FF0000102D40DE009F1010111
:104910008946B9420FDA8145F8DB1BF809100029F6
:10492000F4D108E009F1010189468142FADB1BF864
:1049300009100029F6D103985346A0EB0907214638
:104940003846179A00F080FA284400EB090507E082
:1049500044E008E10DE01BF8010B5246179990471F
:10496000B9F10109F7D2534621463846179AF2E0C9
:1049700039E00A21C4F302524FF0000B0091022AE1
:1049800006D058F8040BC117032A09D00AE023E027
:1049900008F1070020F00702F2E80201904605E066
:1049A00000B2C117042A01D140B2C117002906DAAA
:1049B0000A460021404261EB02012D2202E022055D
:1049C00004D52B228DF80420012203E0E20701D058
:1049D0002022F7E7914657E00A2100E010214FF02E
:1049E000000B00910BE010214FF0000B44F0040489
:1049F0000827009103E008204FF0000B0090C4F35B
:104A00000252022A05D058F8040B0021032A08D0CC
:104A100008E008F1070020F00702F2E802019046E2
:104A200003E080B2042A00D1C0B24FF0000922078F
:104A30002AD53278702A07D0DDF800C08CF0100C2F
:104A40005CEA0B0C05D00EE040228DF80420012218
:104A500008E050EA010306D030238DF804308DF8C9
:104A6000052002229146009B83F0080353EA0B03C2
:104A70000AD150EA010201D1620705D530228DF832
:104A800004204FF001097F1E3278582A04D039A241
:104A90000C920CAA02920BE03BA2F9E75B46009A4B
:104AA000FBF790FB0C9B9B5C029A521E02921370C8
:104AB00050EA0102F2D1029804A9081A00F1200B71
:104AC000600702D524F4803400E001275F4502DD51
:104AD000A7EB0B0000E0002000EB0B010090039817
:104AE0004944401A0390E00306D453462146179ADE
:104AF000039800F0A9F90544002706E001A85246F2
:104B0000C05D179990476D1C7F1C4F45F6DBE00395
:104B10000CD553462146179A039800F095F90544A1
:104B200004E030205246179990476D1C0099481EAA
:104B300000900029F5DC08E00298029952460078BE
:104B4000491C0291179990476D1CBBF10001ABF114
:104B5000010BF1DC5BE100F065F90544761C30786F
:104B600000287FF40DAE19B02846BDE8F08F000094
:104B70000928010030313233343536373839616233
:104B800063646566000000003031323334353637F7
:104B9000383941424344454600000000600700D4D4
:104BA000062708F1070020F00700F0E802238046FE
:104BB00003F0004C5FEA0C0001D097A009E020054B
:104BC00001D596A005E0E00701D095A001E0AFF285
:104BD0004C001390307823F0004365280CD006DC9D
:104BE000452809D046281DD047287FD13BE06628BC
:104BF00018D067287AD136E00021112F01DB11206F
:104C000000E0781CCDE9000104A90CA8FFF7EEFC38
:104C1000DDE90D010C9A4FF0000B07F1010910922C
:104C200000914EE04FF000400097CDE9011004A93B
:104C30000CA8FFF7DBFCDDE90D020C9B0F994FF090
:104C4000000B91461093009211B9791C00EB0109F9
:104C5000B7EB090003D4C0F1FF3B07F10109A9EB51
:104C60000700019042E0012F00DA01270021112FF7
:104C700001DD112000E03846CDE9000104A90CA8AF
:104C8000FFF7B4FCDDE90D010C9A00914FF0000B29
:104C9000B946109221070FD4009A4A4503DA91468B
:104CA00001E0A9F10109B9F1010F05DD109AA9F19F
:104CB0000101515C3029F4D0B84202DA10F1040F3E
:104CC00003DA0121CDE9011010E0002803DC834460
:104CD000A9EB000102E0411C494500DD8946A0EB3B
:104CE0000B00401C01904FF000400290200705D4BB
:104CF0000198484502DB4FF0FF30019000208DF80D
:104D00004B0002980DF14B07B0F1004F25D0022067
:104D10000C902B200D90029800280CDA4042029053
:104D20002D200D9007E00A210298FBF795FC303109
:104D3000029007F8011D0C99481E0C900029F2DC26
:104D400002980028EFD1791E0D980870307800F095
:104D5000200040F0450007F8020D11A8C01BC01D3F
:104D600002901398007800B1012000EB090101982E
:104D700001EBE071029801440398401A401E039031
:104D8000E00306D453462146179A039800F05CF8D6
:104D900005441398007818B15246179990476D1C36
:104DA000E00323D553462146179A039800F04CF8A8
:104DB00005441BE0BBF1000F07DB0098584504DDFC
:104DC0001098179910F80B0001E0179930205246FF
:104DD000904701980BF1010B401E05F10105019070
:104DE00004D12E205246179990476D1CB9F100014D
:104DF000A9F10109DEDC05E017F8010B524617990D
:104E000090476D1C0299481E02900029F4DC53461D
:104E10002146179A03989EE62D0000002B00000003
:104E2000200000002DE9F041044600251E461746EB
:104E3000880404D405E039462020B0476D1C641E68
:104E4000F9D52846BDE8F0812DE9F041044600255A
:104E50001E469046C80301D5302700E0202788046D
:104E600004D505E041463846B0476D1C641EF9D5AF
:104E70002846BDE8F0814A68002A06D00A68531C1B
:104E80000B6010704868401E48607047FEB50646CB
:104E90000D460024684600F01FFD00229FED1B1AFE
:104EA0006B46012156F8227055F82200381A00D5B9
:104EB000404200EE100A03EB8200B8EEC00AD0EDCB
:104EC000000A20EE010AF5EEC00AF1EE10FA0DD04C
:104ED000C0EE201AB7EE000A0D4F31EEC00AB0EE58
:104EE000C00A10EE100AB84207DC09E010EE100A02
:104EF000084F3844084FB84202D301FA02F0044385
:104F0000521C032ACEDB2046FEBD00000000803785
:104F1000295C0F3E666666C19A99D90010B541ECCE
:104F2000100BFFF731F851EC100B10BD08B560B154
:104F300020208DF8000028208DF8010030208DF809
:104F4000020038208DF8030004E0A3220421684603
:104F5000FBF7ACF96A46042140F69E2001F0ECFF15
:104F600001F0FCFB08BD00003EB5044602208DF8B0
:104F70000000CA208DF80100E3208DF8020009200E
:104F80008DF803006A460421682001F0D5FFA320B4
:104F90008DF80000610609D5C0218DF80110C821E7
:104FA0008DF80210C2218DF8031005E08DF8010084
:104FB0008DF802008DF8030014F4C07F09D0C421DD
:104FC0008DF80410CC218DF80510C6218DF806103F
:104FD00005E08DF804008DF805008DF806008DF8C9
:104FE00008008DF807008DF809006A460A2140F68E
:104FF000A72001F0A1FFA0074FF0D80503D0202083
:105000008DF8000001E08DF800506A46012140F65D
:10501000B62001F091FFA00601D5012000E000209C
:1050200000F08EF814F4C07F1ED0E0050AD5B2203F
:105030008DF800008B208DF80100B6208DF802005D
:105040009B2009E0B0208DF8000080208DF8010041
:10505000B4208DF8020090208DF803006A460421E8
:1050600040F6A22001F068FFE1074FF40B6022D068
:10507000F8218DF800106A46012101F05DFFFA2148
:10508000072000F04DFB072000F018FB012000F086
:1050900035FB642000F0F4FB4FF4FA7000F000FCE4
:1050A000C821254800F0D2FA282000F0E7FA0A20AB
:1050B00000F0F4FA05E08DF800506A46012101F095
:1050C0003BFFA00703D5D9208DF8000001E08DF843
:1050D00000506A46012140F23D7001F02DFF60074B
:1050E00001D5012000E0002000F048F8E00601D5DD
:1050F000012000E00020FFF719FF104D44F00800E8
:10510000688101F02BFB0020A873600601D5062002
:10511000A87314F4C07F02D0A87B801DA87314F07C
:10512000140F02D0A87B1030A873A00702D0A87B70
:10513000001DA87300203EBD09E3CA027C020020C6
:105140000EB54FF4976310B106A107C901E008A29C
:1051500007CA8DE807006A460921184601F0ECFEEF
:105160000EBD0000B8AAB38DB4980D355D000000E7
:10517000B8AAAAAAB088C3C5C700000008B560B124
:10518000C0208DF80000C2208DF80100C4208DF8E9
:105190000200C6208DF8030004E08B22042168463B
:1051A000FBF784F86A46042140F6982001F0C4FE1B
:1051B00001F0D4FA08BD0000C8234FF48062024910
:1051C00040F6F63001F06EB9AC7300082DE9FF4FE0
:1051D00089B01746DDE916520024564E88468146AE
:1051E0002C80A246B07B694601F01EFA4FF0FF3BCF
:1051F00018B158460DB0BDE8F08F708910F0140F4B
:105200004ED0BDF800109DF8022049BA090441EAC9
:1052100002229DF803100A433A60BDF804109DF87D
:10522000063049BA090441EA03219DF807301214F7
:1052300019437960BDF808309DF80A405BBA1B0439
:1052400043EA04239DF80B4009142343BB60BDF8D7
:105250000C409DF80EC064BA240444EA0C2C9DF85E
:105260000F404CEA040C1024C7F80CC01B144FEA82
:105270002C4712FB02F211FB012113FB03F217FB77
:1052800007221144A1F17061B1F1007F04D901F04E
:1052900065FAA5F800A0ACE7298841F4807129805F
:1052A0004206694611D50A19A41D13885BBAA8F8ED
:1052B000003053885BBAA8F80230928852BAA8F836
:1052C00004202A8842F008022A8010F4C07F11D0FE
:1052D0000A19A41D13885BBAA9F8003053885BBA79
:1052E000A9F80230928852BAA9F804202A8842F01C
:1052F00070022A80800716D00C44E07800F0C005C8
:1053000000F03F016078C00706D0C80801F007012F
:105310003268491C02B190476078000703D5716874
:1053200009B1A8098847FCF753FA0C9908600020D6
:1053300060E700007C0200202DE9FF41044603A83D
:1053400000F078FFBDF80C00410CC30300BF2F48EC
:10535000008900F0030254F82250420700D56D4244
:10536000C0F3C102860654F8222000D55242C0F391
:105370008116C00554F8264000D56442A5FB03679A
:10538000E81700FB037005FB0100850045EA9670F5
:10539000A2FB0367D51705FB037502FB01529500BD
:1053A00045EA9672A4FB0367E51705FB037304FB4C
:1053B00001318B0043EA9671030E8DF80030030C27
:1053C0008DF80130030A8DF802308DF80300100EBD
:1053D0008DF80400100C8DF80500100A8DF80600F9
:1053E000080E8DF80800080C8DF80900080A8DF8E1
:1053F0000A008DF807208DF80B106A460C214FF437
:10540000257001F099FD04B0BDE8F0817C02002018
:1054100030B5044613A285B007CA8DE807004FF0E7
:10542000FF35C82C16D8C820B0FBF4F1491E080A75
:105430008DF80C008DF80D1003AA022140F2162001
:1054400001F07AFD30B96A460C2140F6C12001F026
:1054500073FD10B1284605B030BD05488481002099
:10546000F9E70000FEF2ABC4AAF1DFDFBBAFDFDF7C
:105470007C020020F8B53049098901F0030250F898
:1054800022404A0700D56442C1F3C1028B0650F89E
:10549000222000D55242C1F3811350F82330C805B1
:1054A00000D55B42254984FB0140850045EA9470A4
:1054B00082FB0142A40F44EA820483FB0121950F81
:1054C00045EA8105010E8DF80010010C8DF80110E0
:1054D000010A8DF802108DF803006A4604214FF48A
:1054E000747001F029FD4FF0FF3688B9200E8DF859
:1054F0000000200C8DF80100200A8DF802008DF8C4
:1055000003406A4604214FF4757001F015FD08B19F
:105510003046F8BD280E8DF80000280C8DF80100EB
:10552000280A8DF802008DF803506A4604214FF4D2
:10553000767001F001FDF8BD7C02002009E3CA028B
:105540002DE9FF4104463CA004F0030300680290EB
:105550003AA0006803903AA006683AA0056802A83D
:10556000C15C8DF80010C4F3C101425C8DF80120CC
:10557000C4F38112805C8DF8020003A8C35C8DF82F
:105580000430415C8DF80510805C8DF806006A4699
:10559000032140F2264001F0CFFC4FF0FF37E0BB83
:1055A00001AA032140F22A4001F0C6FCA8BBCDE9C4
:1055B000006560070BD59DF8000040F001008DF8F4
:1055C00000009DF8040040F001008DF80400A006E2
:1055D0000BD59DF8010040F001008DF801009DF809
:1055E000050040F001008DF80500E0050BD59DF8A1
:1055F000020040F001008DF802009DF8060040F026
:1056000001008DF806006A4603214FF4886001F01E
:1056100093FC10B901AA032100E004E040F23140FC
:1056200001F08AFC18B1384604B0BDE8F0810648A4
:1056300004810020F8E700004CCD6C000CC92C0060
:1056400036567600264666007C0200204FF47A72B9
:1056500090FBF2F008B54843010E8DF80010010CE4
:105660008DF80110010A8DF802108DF803006A46CA
:1056700004214FF4AE7001F05FFC08BD0521B0FBC2
:10568000F1F008B5010A8DF800108DF801006A46A6
:1056900002214FF4AD7001F04FFC08BD0521B0FBB5
:1056A000F1F008B5010A8DF800108DF801006A4686
:1056B00002214FF4AC7001F03FFC08BD08B5002199
:1056C0008DF80010C10702D030218DF8001081073D
:1056D00005D59DF8001041F00C018DF80010400731
:1056E00005D59DF8000040F003008DF800006A46E3
:1056F00001214FF4A47001F01FFC08BD08B560B192
:10570000042800D90420401E8DF800006A460121BB
:1057100040F24F1001F010FC08BD0120F3E700003B
:1057200070B504462DED028B82B040074FF0FF3577
:105730007ED0B1F5C86F7BD800EE101AB8EE400AE3
:10574000DFED460A01A880EE208A00F055FD9DF8A5
:105750000400022806D0042810D0082835D01028CC
:1057600074D13EE09FED3E0A28EE000ABCEEC00A6E
:1057700010EE100A9FED3B0A82B20AE09FED3A0A52
:1057800028EE000ABCEEC00A10EE100A9FED370AA0
:1057900082B228EE000A6E46BCEEC00A10EE100A75
:1057A00081B2100A8DF800008DF80120080A8DF8EA
:1057B00002008DF80310E00726D0324602214FF494
:1057C000EA7001F0B9FB98BB17E09FED290A28EEBB
:1057D000000ABCEEC00A10EE100A9FED260A82B243
:1057E000D7E79FED250A28EE000ABCEEC00A10EEAE
:1057F000100A9FED220A82B2CBE7B21C02214FF4BD
:10580000927001F099FB98B9A0070DD56A46022164
:105810004FF4EC7001F090FB50B9B21C02214FF430
:10582000947001F089FB18B9600714D56A4600E04E
:105830000CE002214FF4EE7001F07EFB30B9B21C97
:1058400002214FF4967001F077FB20B1284602B098
:10585000BDEC028B70BD0020F9E70000000048435A
:105860000000804600004046000000460000C045A1
:105870000000804500004045000000450000C04495
:105880000521B0FBF1F008B5010A8DF800108DF884
:1058900001006A4602214FF4EF7001F04DFB08BD94
:1058A0000521B0FBF1F008B5010A8DF800108DF864
:1058B00001006A4602214FF4ED7001F03DFB08BD86
:1058C00082B0CDE9000121F0004001909DED000B78
:1058D00002B051EC100B704710B586B004466FF063
:1058E0007F42042104A88DE80700274801230D22E8
:1058F000406801782548FCF7CBF810B1072006B0C6
:1059000010BD9DF810101C2000EAD1029DF8131064
:10591000DFED1F0AC1F301131A438DF80C209DF827
:105920001120C1F3810300EAD2021A438DF80D2041
:105930009DF8122001F0030100EAD20008439FED18
:10594000151A9FED150A8DF80E00002103AA505C70
:10595000002804EB810002D080ED001A08E0C0EDC1
:10596000000A0BE0D0ED001A61EE801AC0ED001ABB
:10597000535C5B1E13F0FF035354F3D1491CC9B2AF
:105980000329E4D30020BAE71000002038010020EA
:10599000000000007B14AE3E1D5A843F2DE9F04FFD
:1059A00087B04FF0010A0C4605468DF80CA04FF069
:1059B00000080DF10C098DF80D806FF07F46022173
:1059C0004846DFF8C4B38DE84300DBF80010DBF88D
:1059D000040017464A7D01785346EC48FCF75AF913
:1059E00000287DD1C820FBF7E3FD00208DF80C00D6
:1059F000B046CDF80090CDE901A8DBF800005E4686
:105A00000123427CDBF804000178E048FCF742F90E
:105A10000028E6D1C346D046CA46CDE900A8CDF855
:105A200008B031687068B1464A7901780123D748D7
:105A3000FCF730F90028D4D103A9CDE90018CDF83E
:105A400008B0D9F80010D9F804005E464A7D017804
:105A5000CA460123CD48FCF71DF90028C1D1C14633
:105A60000DF10C08B34642468DE8040ADAF800004E
:105A700056460123827EDAF804000178C348FCF719
:105A800009F90028ADD1CA46C1468DE8000E30683C
:105A90000123027970680178BC48FCF7FBF8002804
:105AA0009FD10C208DF80C00CDF80090CDE901AB12
:105AB0003068D8460123027970680178B348FCF752
:105AC000E9F800288DD10F20FBF772FDB06A407A0B
:105AD0008DF80C00CDF80090CDE901A8306800E009
